:020000040800F2
:100000000008002089010008E5010008E50100085A
:10001000E5010008E5010008E50100080000000016
:10002000000000000000000000000000E5010008E2
:10003000E501000800000000E5010008E5010008F6
:10004000E5010008E5010008E5010008E5010008F8
:10005000E5010008E5010008E5010008E5010008E8
:10006000E5010008E5010008E5010008E5010008D8
:10007000E5010008E5010008E5010008E5010008C8
:10008000E5010008E5010008E5010008E5010008B8
:10009000E5010008E5010008E5010008E5010008A8
:1000A000E5010008E5010008E5010008E501000898
:1000B000E5010008E5010008E5010008E501000888
:1000C000E5010008E5010008E5010008E501000878
:1000D000E5010008E5010008E5010008E501000868
:1000E000E5010008E5010008E5010008E501000858
:1000F000E5010008E5010008E5010008E501000848
:10010000E5010008E5010008E5010008E501000837
:10011000E5010008E5010008E5010008E501000827
:10012000E5010008E5010008E5010008E501000817
:10013000E5010008E5010008E5010008E501000807
:10014000E5010008E5010008E5010008E5010008F7
:10015000E5010008E5010008E5010008E5010008E7
:10016000E5010008E5010008E5010008E5010008D7
:10017000E5010008E5010008E5010008E5010008C7
:10018000E5010008E501000880B582B000AF104B22
:100190007B60104B3B6007E03B681A1D3A607A6851
:1001A000111D796012681A603A680B4B9A42F3D3BA
:1001B0000A480B494FF000028842B8BF40F8042BB0
:1001C000FFF6FAAF00F012F80837BD4680BD00BF59
:1001D000A005000800000020000000200000002012
:1001E0000000002080B400AFFEE700BF80B586B0FD
:1001F00000AF0820012100F041F84FF6FF733B618A
:1002000001233B7501237B750023BB750023FB7520
:1002100007F110031848194600F06CF8012001217D
:1002200000F04AF849F62A13BB60FF23BB80002385
:10023000BB810023FB800023BB733B1D4FF080403C
:10024000194600F0F7F84FF08040012100F05CF90A
:100250004FF08040012100F077F90346002B0AD0CF
:100260004FF08040012100F08BF903484FF6FF71F9
:1002700000F0CEF8ECE7EBE7000C024080B483B06E
:1002800000AF78600B46FB70FB78002B06D0094B63
:10029000084A116B7A680A431A6306E0054B054A5F
:1002A000116B7A68D2430A401A630C37BD465DF879
:1002B000047B70470038024080B483B000AF7860A0
:1002C0000B46FB70FB78002B06D0094B084A116CDB
:1002D0007A680A431A6406E0054B054A116C7A688D
:1002E000D2430A401A640C37BD465DF8047B704760
:1002F0000038024080B487B000AF786039600023D6
:100300007B6100233B610023FB6000237B6176E07F
:100310007B69012202FA03F33B613B681A683B697F
:100320001340FB60FA683B699A4265D17B681A68A2
:100330007B695B00032101FA03F3DB431A407B680E
:100340001A607B681A683B681B7919467B695B00F9
:1003500001FA03F31A437B681A603B681B79012B8F
:1003600003D03B681B79022B2ED17B689A687B698E
:100370005B00032101FA03F3DB431A407B689A60B8
:100380007B689A683B685B7919467B695B0001FA78
:1003900003F31A437B689A607B685A687B699BB257
:1003A000012101FA03F3DB431A407B685A607B6842
:1003B0005A683B689B7919467B699BB201FA03F343
:1003C0009BB21A437B685A607B68DA687B699BB290
:1003D0005B00032101FA03F3DB431A407B68DA6018
:1003E0007B68DA683B68DB7919467B695B0001FA58
:1003F00003F31A437B68DA607B6901337B617B69B5
:100400000F2B85D91C37BD465DF8047B704700BFB4
:1004100080B483B000AF78600B467B807B685A69FC
:100420007B885A407B685A610C37BD465DF8047B77
:10043000704700BF80B485B000AF7860396000239A
:10044000FB817B681B88FB817A68284B9A4213D01A
:100450007A68274B9A420FD07B68B3F1804F0BD05C
:100460007A68244B9A4207D07A68234B9A4203D089
:100470007A68224B9A4208D1FB8923F07003FB81F2
:100480003B685A88FB891343FB817A681C4B9A426C
:100490000CD07A681B4B9A4208D0FB8923F4407336
:1004A000FB813B681A89FB891343FB817B68FA89CE
:1004B0001A803B685A687B68DA623B681A887B68F6
:1004C0001A857A68094B9A4203D07A68084B9A4297
:1004D00004D13B689B7A1A467B681A867B680122A6
:1004E0009A821437BD465DF8047B704700000140D6
:1004F000000401400004004000080040000C0040DF
:10050000001000400014004080B483B000AF786059
:100510000B46FB70FB78002B08D07B681B889BB2D6
:1005200043F001039AB27B681A8007E07B681B885E
:100530009BB223F001039AB27B681A800C37BD4648
:100540005DF8047B704700BF80B485B000AF786071
:100550000B467B800023FB737B681B8A9AB27B88E7
:1005600013409BB2002B02D00123FB7301E0002358
:10057000FB73FB7B18461437BD465DF8047B704760
:1005800080B483B000AF78600B467B807B88DB4310
:100590009AB27B681A820C37BD465DF8047B7047BF
:0400000508000000EF
:00000001FF
