:020000040800F2
:100000000008002089010008E5010008E50100085A
:10001000E5010008E5010008E50100080000000016
:10002000000000000000000000000000E5010008E2
:10003000E501000800000000E5010008E5010008F6
:10004000E5010008E5010008E5010008E5010008F8
:10005000E5010008E5010008E5010008E5010008E8
:10006000E5010008E5010008E5010008E5010008D8
:10007000E5010008E5010008E5010008E5010008C8
:10008000E5010008E5010008E5010008E5010008B8
:10009000E5010008E5010008E5010008E5010008A8
:1000A000E5010008E5010008E5010008E501000898
:1000B000E5010008E5010008E5010008E501000888
:1000C000E5010008E5010008E5010008E501000878
:1000D000E5010008E5010008E5010008E501000868
:1000E000E5010008E5010008E5010008E501000858
:1000F000E5010008E5010008E5010008E501000848
:10010000E5010008E5010008E5010008E501000837
:10011000E5010008E5010008E5010008E501000827
:10012000E5010008E5010008E5010008E501000817
:10013000E5010008E5010008E5010008E501000807
:10014000E5010008E5010008E5010008E5010008F7
:10015000E5010008E5010008E5010008E5010008E7
:10016000E5010008E5010008E5010008E5010008D7
:10017000E5010008E5010008E5010008E5010008C7
:10018000E5010008E501000880B582B000AF104B22
:100190007B60104B3B6007E03B681A1D3A607A6851
:1001A000111D796012681A603A680B4B9A42F3D3BA
:1001B0000A480B494FF000028842B8BF40F8042BB0
:1001C000FFF6FAAF00F012F80837BD4680BD00BF59
:1001D000A003000800000020000000200000002014
:1001E0000000002080B400AFFEE700BF80B582B001
:1001F00000AF0820012100F019F84FF400533B60D4
:1002000001233B7101237B710023BB710023FB7130
:100210003B460548194600F027F803484FF40051C3
:1002200000F0B0F8F9E700BF000C024080B483B0E2
:1002300000AF78600B46FB70FB78002B06D0094BB3
:10024000084A116B7A680A431A6306E0054B054AAF
:10025000116B7A68D2430A401A630C37BD465DF8C9
:10026000047B70470038024080B487B000AF7860EC
:10027000396000237B6100233B610023FB60002386
:100280007B6176E07B69012202FA03F33B613B6804
:100290001A683B691340FB60FA683B699A4265D172
:1002A0007B681A687B695B00032101FA03F3DB4377
:1002B0001A407B681A607B681A683B681B7919468C
:1002C0007B695B0001FA03F31A437B681A603B68A1
:1002D0001B79012B03D03B681B79022B2ED17B6845
:1002E0009A687B695B00032101FA03F3DB431A4040
:1002F0007B689A607B689A683B685B7919467B6982
:100300005B0001FA03F31A437B689A607B685A68C2
:100310007B699BB2012101FA03F3DB431A407B683E
:100320005A607B685A683B689B7919467B699BB227
:1003300001FA03F39BB21A437B685A607B68DA6860
:100340007B699BB25B00032101FA03F3DB431A4094
:100350007B68DA607B68DA683B68DB7919467B6921
:100360005B0001FA03F31A437B68DA607B690133AF
:100370007B617B690F2B85D91C37BD465DF8047BFB
:10038000704700BF80B483B000AF78600B467B80BD
:100390007B687A881A830C37BD465DF8047B70470A
:0400000508000000EF
:00000001FF
