:020000040800F2
:1000000068080020990A0008F50A0008F50A0008A7
:10001000F50A0008F50A0008F50A000800000000CB
:10002000000000000000000000000000F50A0008C9
:10003000F50A000800000000F50A0008F50A0008AB
:10004000F50A0008F50A0008F50A0008F50A000894
:10005000F50A0008F50A0008F50A0008F50A000884
:10006000F50A0008F50A0008F50A0008F50A000874
:10007000F50A0008F50A0008F50A0008F50A000864
:10008000F50A0008F50A0008F50A0008F50A000854
:10009000F50A0008F50A0008F50A0008F50A000844
:1000A000F50A0008F50A0008F50A0008F50A000834
:1000B000F50A0008F50A0008F50A0008F50A000824
:1000C000F50A0008F50A0008F50A0008F50A000814
:1000D000F50A0008FD0A0008F50A0008F50A0008FC
:1000E000F50A0008F50A0008F50A0008F50A0008F4
:1000F000F50A0008F50A0008F50A0008F50A0008E4
:10010000F50A0008F50A0008F50A0008F50A0008D3
:10011000F50A0008F50A0008F50A0008F50A0008C3
:10012000F50A0008F50A0008F50A0008F50A0008B3
:10013000F50A0008F50A0008F50A0008F50A0008A3
:10014000F50A0008F50A0008F50A0008F50A000893
:10015000F50A0008F50A0008F50A0008F50A000883
:10016000F50A0008F50A0008F50A0008F50A000873
:10017000F50A0008F50A0008F50A0008F50A000863
:10018000F50A0008F50A000880B58AB000AF78606B
:10019000396000237B6200233B620023FB61002364
:1001A000BB617B681B8A9BB27B627B6A23F44053F2
:1001B0007B623B68DB887A6A13437B627B6A9AB214
:1001C0007B681A827B689B899BB27B627B6A23F483
:1001D000B05323F00C037B623B689A883B681B8911
:1001E00013439AB23B685B8913439BB27A6A134309
:1001F0007B627B6A9AB27B689A817B689B8A9BB29E
:100200007B627B6A23F440737B623B689B897A6ADA
:1002100013437B627B6A9AB27B689A8207F1080378
:10022000184600F071FD7A68314B9A4203D07A6823
:10023000304B9A4202D17B693B6201E03B693B62F1
:100240007B689B899BB29BB21BB2002B0CDA3A6A8B
:1002500013469B0013449A001A443B681B685B00DA
:10026000B2FBF3F3FB610BE03A6A13469B001344C5
:100270009A001A443B681B689B00B2FBF3F3FB61D6
:10028000FA691D4BA3FB02135B091B017B627B6AAE
:100290001B09642202FB03F3FA69D31ABB617B6872
:1002A0009B899BB29BB21BB2002B0DDABB69DB00B2
:1002B00003F13202104BA3FB02135B0903F00703A7
:1002C0007A6A13437B620CE0BB691B0103F13202C3
:1002D000094BA3FB02135B0903F00F037A6A134374
:1002E0007B627B6A9AB27B681A812837BD4680BDE3
:1002F00000100140001401401F85EB5180B483B011
:1003000000AF78600B46FB70FB78002B08D07B6851
:100310009B899BB243F400539AB27B689A8107E0B1
:100320007B689B899BB223F400539AB27B689A81C5
:100330000C37BD465DF8047B704700BF80B483B0C6
:1003400000AF78607B689B889BB2C3F308039BB2C5
:1003500018460C37BD465DF8047B704780B487B003
:1003600000AF786013460A467A807B7000233B61B9
:100370000023FB600023BB6000237B617B687B6103
:100380007B88DBB25B09DBB23B617B8803F01F0338
:10039000FB60FB68012202FA03F3BB603B69012B9F
:1003A00003D17B690C337B6109E03B69022B03D1EC
:1003B0007B6910337B6102E07B6914337B617B785E
:1003C000002B06D07B697A691168BA680A431A6003
:1003D00006E07B697A691168BA68D2430A401A60FC
:1003E0001C37BD465DF8047B704700BF80B487B002
:1003F00000AF78600B467B800023FB6000237B61AD
:100400000023BB600023FB747B88DBB25B09DBB29B
:10041000BB607B8803F01F037B617B69012202FACA
:1004200003F37B61BB68012B06D17B689B899BB280
:100430007A6913407B610FE0BB68022B06D17B68B1
:100440001B8A9BB27A6913407B6105E07B689B8ABB
:100450009BB27A6913407B617B881B0A9BB2FB606D
:10046000FB68012202FA03F3FB607B681B889BB2E6
:10047000FA681340FB607B69002B05D0FB68002BFA
:1004800002D00123FB7401E00023FB74FB7C1846BF
:100490001C37BD465DF8047B704700BF80B485B053
:1004A00000AF78600B467B800023FB810023BB817B
:1004B0007B881B0AFB81FB89012202FA03F3BB81C3
:1004C000BB89DB439AB27B681A801437BD465DF85E
:1004D000047B704780B483B000AF78600B46FB703C
:1004E0007B681B889BB203F04003002B01D10023E3
:1004F00025E000BF7B681B899BB203F00303002B40
:10050000F8D07B681B899BB203F08003002BF1D1EC
:10051000FB789AB27B689A8100BF7B681B899BB28B
:1005200003F00303002BF8D07B681B899BB203F018
:100530008003002BF1D17B689B899BB2DBB218460C
:100540000C37BD465DF8047B704700BF80B582B0B4
:1005500002AF01230093002301930D488021012263
:10056000002301F02FF80123009300230193084892
:100570004FF480710122002301F024F8044B802203
:100580001A83034B4FF480725A83BD4680BD00BF6F
:10059000000C024080B582B000AF02460B46FA71F3
:1005A000BB71FFF7D3FF4048012100F093FCBB79FA
:1005B000202B01D92023BB71FB79002B14BF002312
:1005C0000123DBB21A46394B5A70384BBA791A708C
:1005D000364B03229A70354B0022DA7000F070F926
:1005E000FB79184600F0FEF9304B1B7811201946B4
:1005F00000F088F82D4B1B781220194600F082F885
:100600002A4B1B781320194600F07CF8274B1B78E7
:100610001420194600F076F8244B1B781520194653
:1006200000F070F8214B1B781620194600F06AF88C
:100630001E4BDA781D4B9B781046194600F0ECF9FA
:100640000020082100F05EF801203F2100F05AF858
:1006500002203F2100F056F804204F2100F052F80C
:100660001C20002100F04EF8114B80225A830E48C6
:10067000E121FFF72FFF0E4B80221A830C4B8022C3
:100680005A830948E221FFF725FF094B80221A838C
:100690000720702100F036F800F08AF80123184690
:1006A0000837BD4680BD00BF003C00402000002050
:1006B000000C024080B582B000AF7860074B4FF469
:1006C00080725A830B207968052200F03FF8034BB3
:1006D0004FF480721A830837BD4680BD000C02407B
:1006E00080B582B000AF78600A207968052200F0FA
:1006F0002DF810207968052200F028F80837BD464B
:1007000080BD00BF80B582B000AF02460B46FA71D3
:10071000BB710C4B80225A83FB7903F01F03DBB2C1
:1007200043F02003DBB208481946FFF7D3FEBB793C
:1007300005481946FFF7CEFE024B80221A83083780
:10074000BD4680BD000C0240003C004080B582B038
:1007500000AF396013460246FA71BB710C4B802220
:100760005A83FB7903F01F03DBB243F02003DBB2B3
:1007700008481946FFF7AEFEBB79064839681A46A5
:1007800000F0E8FB024B80221A830837BD4680BD8B
:10079000000C0240003C004080B500AF07207021F3
:1007A000FFF7B0FF00200A21FFF7ACFF80BD00BFBC
:1007B00080B500AF0D4B4FF480725A830B4B8022F3
:1007C0005A830B48E221FFF785FE084B80221A83EB
:1007D00007207021FFF796FF00200B21FFF792FF03
:1007E000024B4FF480721A8380BD00BF000C0240A0
:1007F000003C004080B584B000AF7860144B1B789B
:10080000FB73144B4FF480725A83FFF7C5FF114BF3
:1008100080225A831048E121FFF75CFE0D4B8022B5
:100820001A830C4B80225A830B48A021FFF752FEFB
:10083000FB7B094879681A4600F08CFB054B802247
:100840001A83044B4FF480721A831037BD4680BD63
:1008500020000020000C0240003C004080B582B027
:1008600000AF084B80225A830748FF21FFF732FE72
:100870000346FB71034B80221A83FB791846083725
:10088000BD4680BD000C0240003C004080B582B0F7
:1008900000AFFFF7E3FF0346FB71FB7903F0200392
:1008A000002B01D0012307E0FB7903F01003002B9C
:1008B00001D0002300E0FF2318460837BD4680BD65
:1008C00080B582B000AF00200821FFF71BFF012098
:1008D0003F21FFF717FF02200321FFF713FF03203B
:1008E0000321FFF70FFF04200321FFF70BFF052073
:1008F0000221FFF707FF06200E21FFF703FF072065
:100900000E21FFF7FFFE08200021FFF7FBFE092064
:100910000021FFF7F7FEE7233B70E7237B70E72317
:10092000BB70E723FB70E7233B713B460A20194667
:100930000522FFF70BFFC2233B70C2237B70C2234B
:10094000BB70C223FB70C2233B713B460B20194690
:100950000522FFF7FBFE0C20C321FFF7D3FE0D207D
:10096000C421FFF7CFFE0E20C521FFF7CBFE0F20DD
:10097000C621FFF7C7FEE7233B70E7237B70E72321
:10098000BB70E723FB70E7233B713B461020194601
:100990000522FFF7DBFE11200021FFF7B3FE122036
:1009A0000021FFF7AFFE13200021FFF7ABFE14205C
:1009B0000021FFF7A7FE15200021FFF7A3FE162058
:1009C0000021FFF79FFE17201121FFF79BFE1C203F
:1009D0000021FFF797FE1D200021FFF793FE083747
:1009E000BD4680BD80B582B000AF0346FB71FB7988
:1009F0007D2B0CD8074B5B78FA799A4207D0054BD0
:100A0000FA795A70FB7905201946FFF77BFE083703
:100A1000BD4680BD2000002080B584B000AF0246F6
:100A20000B46FA71BB710023FB731A4BFA79DA702B
:100A3000184BBA799A70FB79002B04D1FB7B43F0F9
:100A40000803FB7306E0FB79022B03D1FB7B43F029
:100A50002003FB73BB79032B04D1FB7B43F006031C
:100A6000FB730EE0BB79022B04D1FB7B43F0040344
:100A7000FB7306E0BB79012B03D1FB7B43F0020340
:100A8000FB73FB7B06201946FFF73CFE1037BD4683
:100A900080BD00BF2000002080B582B000AF104BA9
:100AA0007B60104B3B6007E03B681A1D3A607A6838
:100AB000111D796012681A603A680B4B9A42F3D3A1
:100AC0000A480B494FF000028842B8BF40F8042B97
:100AD000FFF6FAAF00F042F80837BD4680BD00BF10
:100AE000E017000800000020200000202000002067
:100AF0006800002080B400AFFEE700BF98B500AFEB
:100B0000124840F22551FFF771FC0346012B1CD11E
:100B10000E4840F22551FFF7C1FC0D4B1C680B48F5
:100B2000FFF70CFC0346DAB20A4B1A55084B1B6858
:100B30005A1C074B1A60064B1B68202B05D1044B2F
:100B400000221A60044B01221A6098BD0010014077
:100B500028000020480000202400002080B500AFBD
:100B600000F028F800F04CF800F068F800F080F889
:100B700000F0AEF800F086F80B4B1B68012B12D189
:100B8000094B00221A600948FFF734FE08484FF469
:100B9000805100F0EFFB00F08BF805484FF48051D6
:100BA00000F0F6FBE8E7E7E724000020480000201B
:100BB000000C024080B582B000AF0220012100F09D
:100BC0004DF90E480621072200F0F0FB0B480721E3
:100BD000072200F0EBFB02233B710023BB71C02313
:100BE0003B600123FB7102237B713B46034819469E
:100BF00000F032FB0837BD4680BD00BF0004024054
:100C000080B584B000AF1020012100F045F94FF409
:100C100016533B600C237B8100233B810023FB8028
:100C20000023BB800023BB813B4603481946FFF7E6
:100C3000ABFA1037BD4680BD0010014080B582B0D0
:100C400000AF25233B7100237B710023BB7101237F
:100C5000FB713B1D184600F057FC044840F225513B
:100C60000122FFF77BFB0837BD4680BD0010014025
:100C700080B500AF02480121FFF740FB80BD00BFF7
:100C80000010014080B500AF0F202021FFF782FC4B
:100C900000200021FFF7C0FE0348FFF70BFD0348CB
:100CA000FFF71EFD80BD00BF0000002008000020EF
:100CB00080B500AFFFF7EAFD03461A46034B1A70F2
:100CC000024B1B78FF2BF5D080BD00BF44000020F5
:100CD00080B582B000AF0820012100F0BFF80123E9
:100CE0003B714FF470433B600223FB710023BB71E7
:100CF00002237B713B460348194600F0ADFA0837E2
:100D0000BD4680BD000C024080B489B000AF786061
:100D10000023BB6100237B610023FB6102233B6155
:100D20000023FB600223BB60484B9B6803F00C036D
:100D3000BB61BB69042B07D0082B09D0002B3FD126
:100D40007B68434A1A603FE07B68424A1A603BE096
:100D50003E4B5B6803F480039B0DFB603B4B5B6881
:100D600003F03F03BB60FB68002B0DD0394ABB6822
:100D7000B2FBF3F2354B596847F6C0730B409B0941
:100D800003FB02F3FB610CE0314ABB68B2FBF3F2F8
:100D90002E4B596847F6C0730B409B0903FB02F3C7
:100DA000FB612A4B5B6803F440331B0C01335B008F
:100DB0003B61FA693B69B2FBF3F27B681A6003E0BE
:100DC0007B68234A1A6000BF204B9B6803F0F00346
:100DD000BB61BB691B09BB611F4ABB6913441B781C
:100DE000DBB27B617B681A687B69DA407B685A609A
:100DF000164B9B6803F4E053BB61BB699B0ABB6164
:100E0000154ABB6913441B78DBB27B617B685A6867
:100E10007B69DA407B689A600C4B9B6803F4604303
:100E2000BB61BB695B0BBB610B4ABB6913441B789D
:100E3000DBB27B617B685A687B69DA407B68DA6089
:100E40002437BD465DF8047B704700BF0038024080
:100E50000024F40040787D011000002080B483B0AD
:100E600000AF78600B46FB70FB78002B06D0094B77
:100E7000084A116B7A680A431A6306E0054B054A73
:100E8000116B7A68D2430A401A630C37BD465DF88D
:100E9000047B70470038024080B483B000AF7860B4
:100EA0000B46FB70FB78002B06D0094B084A516CAF
:100EB0007A680A435A6406E0054B054A516C7A6821
:100EC000D2430A405A640C37BD465DF8047B704734
:100ED0000038024080B584B002AF78600B46FB70EA
:100EE0007A68194B9A420BD1FB784FF482720092C8
:100EF00000220192144819460022202300F07AF8BB
:100F00007A68124B9A420BD1FB784FF482720092AE
:100F1000002201920D4819460022202300F06AF8B1
:100F20007A680B4B9A420BD1FB784FF48272009295
:100F300000220192064819460022202300F05AF8A8
:100F40000837BD4680BD00BF00300140003800407A
:100F5000003C004080B487B000AFF860B9607A60B0
:100F6000FB681B889BB203F04003002B00D130E0EC
:100F700000BFFB681B899BB203F00303002BF8D072
:100F8000FB681B899BB203F08003002BF1D1002387
:100F90007B611AE0BA687B6913441B781A46FB68C8
:100FA0009A8100BFFB681B899BB203F00303002BEF
:100FB000F8D0FB681B899BB203F08003002BF1D1B2
:100FC000FB689B897B6901337B617A697B689A4204
:100FD000E0D31C37BD465DF8047B704780B483B016
:100FE00000AF78600B467B800C37BD465DF8047B14
:100FF000704700BF80B588B000AF7860F970BA70F4
:101000003B8007F10C03184600F05AFA7A68394B16
:101010009A420BD1384B384A526C42F480525A648F
:10102000FB78184600F06EF800233B827A68334B59
:101030009A420BD1304B304A126C42F480421A640F
:10104000FB78184600F08EF800233B827A682C4B20
:101050009A420BD1284B284A126C42F400421A647F
:10106000FB78184600F0C8F800233B823B883B839E
:101070000023BB81BB8D7B833B8DFB814FF40073D1
:10108000FB82BB78002B04D100237B820023BB8230
:1010900016E0BB78012B04D100237B820123BB82A5
:1010A0000EE0BB78022B04D102237B820023BB829B
:1010B00006E0BB78032B03D102237B820123BB8292
:1010C0007B681B889BB223F040039AB27B681A802E
:1010D00007F10C037868194600F0AEF97B681B88AD
:1010E0009BB243F040039AB27B681A802037BD461A
:1010F00080BD00BF00300140003802400038004091
:10110000003C004080B584B002AF0346FB71FB7920
:10111000002B09D103230093052301930E48E021FE
:101120000022002300F06AFAFB79012B09D1032386
:10113000009305230193094838210022002300F081
:101140005DFAFB79032B03D105480521FFF746FF24
:101150000837BD4680BD00BF0000024000040240C9
:101160000030014080B584B002AF0346FB71FB79CB
:10117000002B14D103230093052301931A484FF445
:1011800080610022002300F039FA03230093052335
:10119000019316480C210022002300F02FFAFB795E
:1011A000012B0AD103230093052301930E484FF42A
:1011B00060410022002300F021FAFB79022B09D1C3
:1011C000032300930523019309480D2100220023E6
:1011D00000F014FAFB79032B03D106480521FFF731
:1011E000FDFE0837BD4680BD0004024000080240F5
:1011F000002002400038004080B584B002AF0346B2
:10120000FB71FB79002B09D1032300930623019383
:101210000E4838210022002300F0F0F9FB79012B61
:101220000AD1032300930623019309484FF4E051A8
:101230000022002300F0E2F9FB79032B03D10548DB
:101240000621FFF7CBFE0837BD4680BD00040240F3
:1012500000080240003C004080B487B000AF7860D6
:10126000396000237B6100233B610023FB60002386
:101270007B6176E07B69012202FA03F33B613B6804
:101280001A683B691340FB60FA683B699A4265D172
:101290007B681A687B695B00032101FA03F3DB4377
:1012A0001A407B681A607B681A683B681B7919468C
:1012B0007B695B0001FA03F31A437B681A603B68A1
:1012C0001B79012B03D03B681B79022B2ED17B6845
:1012D0009A687B695B00032101FA03F3DB431A4040
:1012E0007B689A607B689A683B685B7919467B6982
:1012F0005B0001FA03F31A437B689A607B685A68C3
:101300007B699BB2012101FA03F3DB431A407B683E
:101310005A607B685A683B689B7919467B699BB227
:1013200001FA03F39BB21A437B685A607B68DA6860
:101330007B699BB25B00032101FA03F3DB431A4094
:101340007B68DA607B68DA683B68DB7919467B6921
:101350005B0001FA03F31A437B68DA607B690133AF
:101360007B617B690F2B85D91C37BD465DF8047BFB
:10137000704700BF80B483B000AF78600B467B80BD
:101380007B687A881A830C37BD465DF8047B70470A
:1013900080B483B000AF78600B467B807B687A882E
:1013A0005A830C37BD465DF8047B704780B485B026
:1013B00000AF786013460A467A807B700023FB609A
:1013C0000023BB607A787B8803F007039B0002FA56
:1013D00003F3FB607B88DB089BB21A467B88DB0843
:1013E0009BB219467B68083153F821107B8803F0C3
:1013F00007039B000F2000FA03F3DB4319407B68CF
:10140000083243F822107B88DB089BB21A467B68BF
:10141000083253F82220FB681343BB607B88DB084B
:101420009BB21A467B680832B96843F82210143719
:10143000BD465DF8047B704780B485B000AF78602E
:1014400039600023FB817B681B88FB81FB8903F4E7
:101450004153FB813B681A883B685B8813439AB20F
:101460003B689B8813439AB23B68DB8813439AB26C
:101470003B681B8913439AB23B685B8913439AB25A
:101480003B689B8913439AB23B68DB8913439AB24A
:10149000FB891343FB817B68FA891A807B689B8BED
:1014A0009BB223F400639AB27B689A833B681A8AE2
:1014B0007B681A821437BD465DF8047B704700BF15
:1014C00080B483B000AF78607B6800221A807B68AC
:1014D00000225A807B6800229A807B680022DA8092
:1014E0007B6800221A817B6800225A817B68002277
:1014F0009A817B680022DA817B6807221A820C3786
:10150000BD465DF8047B704780B485B000AF78605D
:101510000023FB730023BB730F237B737B68DB7893
:10152000002B37D0254BDB68DB4303F4E0631B0A59
:10153000FB73FB7BC3F10403BB737A7BFB7B42FA37
:1015400003F37B737B685B781A46BB7B02FA03F379
:10155000FB737B689A787B7B1340DAB2FB7B134387
:10156000FB73FB7B1B01FB73154A7B681B781344E1
:10157000FA7B83F80023124B7A6812785209D2B2B0
:101580007968097801F01F01012000FA01F143F8A0
:1015900022100EE00A4B7A6812785209D2B27968AA
:1015A000097801F01F01012000FA01F1203243F80F
:1015B00022101437BD465DF8047B704700ED00E053
:1015C00000E100E080B584B002AF786079807A7085
:1015D0003B707B88002B00D10CE0786800F06CF841
:1015E00079887A783B78387C0090387D01907868EB
:1015F00000F078F80837BD4680BD00BF80B586B0E2
:1016000002AF786079807A703B707B88002B00D1C4
:101610003CE0786800F050F80023FB6028E07A880E
:10162000FB6842FA03F303F00103002B00D11CE036
:10163000FB68DA08FB68D9087B68083153F8211089
:10164000FB6803F007039B000F2000FA03F3DB4362
:101650001940387FFB6803F007039B0000FA03F38F
:1016600019437B68083243F82210FB680133FB60A2
:10167000FB680F2BD3D97A887B7839780091397E33
:10168000019178681146022200F02CF81037BD460F
:1016900080BD00BF80B483B000AF78607B6803F189
:1016A0003F4303F57E039B0A9BB218460C37BD46A9
:1016B0005DF8047B704700BFB0B582B000AF7860C2
:1016C000074C074B1D6B7868FFF7E4FF03460122C8
:1016D00002FA03F32B4323630837BD46B0BD00BFB6
:1016E0000038024080B584B000AF786079807A70AD
:1016F0003B707868FFF7CEFF0346BB730023FB7394
:1017000066E07A88FB7B42FA03F303F00103002BC7
:1017100000D15AE0BA7BB97B304B33F8113099B223
:10172000FB7B012000FA03F39BB20B439BB299B2FF
:101730002A4B23F812107B68DA68FB7B5B000321DD
:1017400001FA03F3DB431A40397EFB7B5B0001FAAD
:1017500003F31A437B68DA607B681A68FB7B5B00E3
:10176000032101FA03F3DB431A407978FB7B5B002A
:1017700001FA03F31A437B681A607B78012B02D0CD
:101780007B78022B21D17B685A68FB7B012101FA0F
:1017900003F39BB2DB431A403978FB7B01FA03F376
:1017A0009BB21A437B685A607B689A68FB7B5B003C
:1017B000032101FA03F3DB431A40397FFB7B5B0013
:1017C00001FA03F31A437B689A60FB7B0133FB73D6
:1017D000FB7B0F2B95D91037BD4680BD2C00002018
:1017E000E7E7E7E7E70000007E7E7E7E7E00000000
:1017F00000000000010203040102030406070809B7
:0400000508000000EF
:00000001FF
