:020000040800F2
:100000006008002075070008D1070008D107000824
:10001000D1070008D1070008D10700080000000040
:10002000000000000000000000000000D1070008F0
:10003000D107000800000000D1070008D107000820
:10004000D1070008D1070008D1070008D107000830
:10005000D1070008D1070008D1070008D107000820
:10006000D1070008D1070008D1070008D107000810
:10007000D1070008D1070008D1070008D107000800
:10008000D1070008D1070008D1070008D1070008F0
:10009000D1070008D1070008D1070008D1070008E0
:1000A000D1070008D1070008D1070008D1070008D0
:1000B000D1070008D1070008D1070008D1070008C0
:1000C000D1070008D1070008D1070008D1070008B0
:1000D000D1070008D1070008D1070008D1070008A0
:1000E000D1070008D1070008D1070008D107000890
:1000F000D1070008D1070008D1070008D107000880
:10010000D1070008D1070008D1070008D10700086F
:10011000D1070008D1070008D1070008D10700085F
:10012000D1070008D1070008D1070008D10700084F
:10013000D1070008D1070008D1070008D10700083F
:10014000D1070008D1070008D1070008D10700082F
:10015000D1070008D1070008D1070008D10700081F
:10016000D1070008D1070008D1070008D10700080F
:10017000D1070008D1070008D1070008D1070008FF
:10018000D1070008D107000880B483B000AF7860C1
:100190000B46FB707B681B889BB203F04003002B6F
:1001A00001D1002325E000BF7B681B899BB203F0CF
:1001B0000303002BF8D07B681B899BB203F08003FC
:1001C000002BF1D1FB789AB27B689A8100BF7B68E3
:1001D0001B899BB203F00303002BF8D07B681B89BB
:1001E0009BB203F08003002BF1D17B689B899BB20B
:1001F000DBB218460C37BD465DF8047B704700BF84
:1002000080B582B002AF01230093002301930D4813
:1002100080210122002301F0D7F90123009300235C
:10022000019308484FF480710122002301F0CCF9BA
:10023000044B80221A83034B4FF480725A83BD46CD
:1002400080BD00BF000C024080B582B000AF024606
:100250000B46FA71BB71FFF7D3FF4048012100F054
:100260004DFEBB79202B01D92023BB71FB79002BDC
:1002700014BF00230123DBB21A46394B5A70384BA6
:10028000BA791A70364B03229A70354B0022DA7015
:1002900000F084F9FB79184600F012FA304B1B7815
:1002A0001120194600F0AAF82D4B1B781220194690
:1002B00000F0A4F82A4B1B781320194600F09EF892
:1002C000274B1B781420194600F098F8244B1B7814
:1002D0001520194600F092F8214B1B78162019467C
:1002E00000F08CF81E4BDA781D4B9B7810461946AF
:1002F00000F000FA0020082100F080F801203F21E2
:1003000000F07CF802203F2100F078F804204F2113
:1003100000F074F81C20002100F070F8114B8022CE
:100320005A830E48E121FFF72FFF0E4B80221A83DC
:100330000C4B80225A830948E221FFF725FF094B25
:1003400080221A830720702100F058F800F0A0F8EE
:10035000012318460837BD4680BD00BF003C004061
:1003600010000020000C024080B582B000AF786021
:10037000074B4FF480725A830B207968052200F0F6
:1003800061F8034B4FF480721A830837BD4680BD75
:10039000000C024080B582B000AF78600A20796816
:1003A000052200F04FF810207968052200F04AF885
:1003B0000837BD4680BD00BF80B584B000AF03469E
:1003C000FB710C4B80225A83FB7903F01F03DBB2D5
:1003D00009481946FFF7D8FE0748FF21FFF7D4FE6A
:1003E0000346FB73034B80221A83FB7B18461037AE
:1003F000BD4680BD000C0240003C004080B582B08C
:1004000000AF02460B46FA71BB710C4B80225A8337
:10041000FB7903F01F03DBB243F02003DBB2084893
:100420001946FFF7B1FEBB7905481946FFF7ACFE48
:10043000024B80221A830837BD4680BD000C024063
:10044000003C004080B582B000AF396013460246E0
:10045000FA71BB710C4B80225A83FB7903F01F03A6
:10046000DBB243F02003DBB208481946FFF78CFEED
:10047000BB79064839681A4600F0CCFD024B802251
:100480001A830837BD4680BD000C0240003C004086
:1004900080B500AF0D4B4FF480725A830B4B802216
:1004A0005A830B48E221FFF76FFE084B80221A8324
:1004B00007207021FFF7A2FF00200B21FFF79EFF0E
:1004C000024B4FF480721A8380BD00BF000C0240C3
:1004D000003C004080B582B000AF78600B4B8022BA
:1004E0005A830B486121FFF74FFE0A4B1B780848DF
:1004F00079687A6800F042FD044B80221A83072055
:100500004021FFF77BFF0837BD4680BD000C02404D
:10051000003C00401000002080B582B000AF00F029
:1005200025F80346FB71FB7903F04003002B01D053
:10053000012307E000F00AF80346002B14BF002354
:100540000123DBB218460837BD4680BD80B582B0B6
:1005500000AF1720FFF730FF0346FB71FB7903F074
:100560000103DBB218460837BD4680BD80B582B0B6
:1005700000AF084B80225A830748FF21FFF704FE93
:100580000346FB71034B80221A83FB791846083718
:10059000BD4680BD000C0240003C004080B582B0EA
:1005A00000AF00200821FFF729FF01203F21FFF7BE
:1005B00025FF02200321FFF721FF03200321FFF77E
:1005C0001DFF04200321FFF719FF05200221FFF77B
:1005D00015FF06200E21FFF711FF07200E21FFF760
:1005E0000DFF08200021FFF709FF09200021FFF778
:1005F00005FFE7233B70E7237B70E723BB70E7230E
:10060000FB70E7233B713B460A2019460522FFF7A2
:1006100019FFC2233B70C2237B70C223BB70C2236D
:10062000FB70C2233B713B460B2019460522FFF7A6
:1006300009FF0C20C321FFF7E1FE0D20C421FFF7C5
:10064000DDFE0E20C521FFF7D9FE0F20C621FFF7E2
:10065000D5FEE7233B70E7237B70E723BB70E723DE
:10066000FB70E7233B713B46102019460522FFF73C
:10067000E9FE11200021FFF7C1FE12200021FFF743
:10068000BDFE13200021FFF7B9FE14200021FFF763
:10069000B5FE15200021FFF7B1FE16200021FFF75F
:1006A000ADFE17201121FFF7A9FE1C200021FFF746
:1006B000A5FE1D200021FFF7A1FE0837BD4680BD25
:1006C00080B582B000AF0346FB71FB797D2B0CD85F
:1006D000074B5B78FA799A4207D0054BFA795A7042
:1006E000FB7905201946FFF789FE0837BD4680BD16
:1006F0001000002080B584B000AF02460B46FA71AE
:10070000BB710023FB731A4BFA79DA70184BBA7974
:100710009A70FB79002B04D1FB7B43F00803FB7339
:1007200006E0FB79022B03D1FB7B43F02003FB7334
:10073000BB79032B04D1FB7B43F00603FB730EE074
:10074000BB79022B04D1FB7B43F00403FB7306E06F
:10075000BB79012B03D1FB7B43F00203FB73FB7BD3
:1007600006201946FFF74AFE1037BD4680BD00BF80
:100770001000002080B582B000AF104B7B60104BA2
:100780003B6007E03B681A1D3A607A68111D79608A
:1007900012681A603A680B4B9A42F3D30A480B4925
:1007A0004FF000028842B8BF40F8042BFFF6FAAFC2
:1007B00000F026FB0837BD4680BD00BFA425000819
:1007C0000000002010000020100000206000002029
:1007D00080B400AFFEE700BF80B582B000AF10204C
:1007E000012100F04FFB03233B6001233B710123F8
:1007F0007B710023BB710023FB713B460348194604
:1008000000F08AFD0837BD4680BD00BF00100240E1
:1008100080B584B000AF0220012100F033FB032338
:10082000BB6001233B7302237B730023FB73002314
:10083000BB7307F108030D48194600F06DFD102049
:10084000012100F01FFB4FF4FF433B6001233B718C
:1008500002237B710023FB710023BB713B460448DC
:10086000194600F059FD1037BD4680BD0004024016
:100870000010024080B584B000AF0820012100F0D4
:1008800001FB4FF47043BB6002233B7302237B7375
:100890000023FB730023BB731A480C21022200F0D3
:1008A000E5FD18480D21022200F0E0FD15480E215B
:1008B000022200F0DBFD13480F21022200F0D6FDDA
:1008C00007F108030F48194600F026FD0220012118
:1008D00000F0D8FA4FF480633B6002233B7102239F
:1008E0007B710023FB710023BB7107480A210122A1
:1008F00000F0BCFD3B460448194600F00DFD1037E2
:10090000BD4680BD000C02400004024080B586B0A8
:1009100000AF0420012100F0D3FA8323BB81002320
:10092000FB817F233B610023BB820023BB751348FF
:10093000082101F007FA07F10C031048194600F0EE
:1009400051FF0120012100F0BBFA83233B800023EB
:100950007B807F237B6000233B810023BB724FF0B1
:100960008040082101F0EEF93B464FF080401946E7
:1009700000F038FF1837BD4680BD00BF00080040BA
:1009800080B58AB000AF7023BB8202233B84012371
:10099000FB820023FB6107F114033448194600F081
:1009A000ABFF07F114033148194601F01FF807F1B6
:1009B00014032E48194601F0A1F807F114032B483F
:1009C000194601F021F929480021012201F0D6F948
:1009D00026480421012201F0D1F9244808210122EE
:1009E00001F0CCF921480C21012201F0C7F91F4880
:1009F000012100F061FF1D48002101F06BF91B4847
:100A0000002101F075F91948002101F07FF917481C
:100A1000002101F089F970233B800223BB8101236F
:100A20007B800023BB603B464FF08040194601F0BD
:100A300065F84FF080400821012201F09FF94FF046
:100A40008040012100F038FF09484FF4005100F0C8
:100A5000F1FC07484FF4804100F0FAFC4FF0804071
:100A6000322101F053F92837BD4680BD000800400F
:100A70000010024080B500AF0F202021FFF7E4FBFB
:100A800000200021FFF736FE0348FFF76DFC034806
:100A9000FFF780FC80BD00BF0000002008000020A0
:100AA00080B500AF7C4B1B687F2B2ADC7B48012183
:100AB00000F0C0FC7948022100F0CAFC764B1B68AC
:100AC000184601F0D7FA02460B46104619466EA3A7
:100AD000D3E9002301F034FB02460B4610461946C9
:100AE0006BA3D3E9002301F079F902460B461046C7
:100AF000194601F037FD03466948194601F0EAF846
:100B00002FE0654B1B687F2B2BDD6448012100F033
:100B10009FFC6248022100F08DFC5F4B1B68C3F113
:100B2000FF03184601F0A6FA02460B461046194686
:100B300055A3D3E9002301F003FB02460B46104600
:100B4000194653A3D3E9002301F048F902460B46A6
:100B50001046194601F006FD03465148194601F0BA
:100B6000B9F8504B1B687F2B2BDC4F48802100F0DD
:100B700061FC4D484FF4807100F06AFC494B1B68E2
:100B8000184601F077FA02460B46104619463EA376
:100B9000D3E9002301F0D4FA02460B461046194669
:100BA0003BA3D3E9002301F019F902460B46104696
:100BB000194601F0D7FC03463948194601F098F868
:100BC00030E0384B1B687F2B2CDD3748802100F04C
:100BD0003FFC35484FF4807100F02CFC314B1B6812
:100BE000C3F1FF03184601F045FA02460B461046D2
:100BF000194625A3D3E9002301F0A2FA02460B46C9
:100C00001046194622A3D3E9002301F0E7F8024673
:100C10000B461046194601F0A5FC0346204819462C
:100C200001F066F8214B1B687F2B41DC1E484FF416
:100C3000007100F0FFFB1C484FF4806100F008FCDD
:100C40001A4B1B68184601F015FA02460B4610466F
:100C500019460DA3D3E9002301F072FA02460B46B0
:100C6000104619460AA3D3E9002301F0B7F802465B
:100C70000B461046194601F075FC03460848194614
:100C800001F044F846E000BF9A9999999999E93F93
:100C900066666666666629402C00002000040240F5
:100CA0000008004030000020001002405C000020DE
:100CB0004F4B1B687F2B2DDD4E484FF4007100F029
:100CC000C7FB4C484FF4806100F0B4FB484B1B68F5
:100CD000C3F1FF03184601F0CDF902460B4610465A
:100CE00019463FA3D3E9002301F02AFA02460B4636
:100CF000104619463CA3D3E9002301F06FF80246E1
:100D00000B461046194601F02DFC03463A48194699
:100D100000F0FCFF394B1B687F2B2CDC35484FF46F
:100D2000006100F087FB33484FF4805100F090FBE6
:100D3000324B1B68184601F09DF902460B461046DF
:100D4000194627A3D3E9002301F0FAF902460B461E
:100D50001046194624A3D3E9002301F03FF80246C8
:100D60000B461046194601F0FDFB03462248194682
:100D700000F0DAFF31E0214B1B687F2B2DDD1D4891
:100D80004FF4006100F064FB1A484FF4805100F00A
:100D900051FB1A4B1B68C3F1FF03184601F06AF9B7
:100DA00002460B46104619460DA3D3E9002301F075
:100DB000C7F902460B46104619460BA3D3E9002398
:100DC00001F00CF802460B461046194601F0CAFB2A
:100DD00003460948194600F0A7FF80BDAFF3008025
:100DE0009A9999999999E93F666666666666294077
:100DF0005C00002000100240000800403400002089
:100E000080B500AFFFF7E8FCFFF702FDFFF732FD0A
:100E1000FFF77CFDFFF7B4FDFFF72CFEFFF77CFB2F
:100E20000346002B21D01148FFF754FB1048022144
:100E300000F000FB0D4B1B78502B16D10B4B5B7851
:100E40001A460C4B1A60094B9B781A460A4B1A60DB
:100E5000064BDB781A46094B1A60044B1B791A467D
:100E6000074B1A60FFF71CFED8E7D7E738000020D1
:100E7000001002402C000020300000205C00002008
:100E80003400002080B483B000AF78600B46FB7064
:100E9000FB78002B06D0094B084A116B7A680A438D
:100EA0001A6306E0054B054A116B7A68D2430A4083
:100EB0001A630C37BD465DF8047B7047003802406A
:100EC00080B483B000AF78600B46FB70FB78002BDA
:100ED00006D0094B084A116C7A680A431A6406E086
:100EE000054B054A116C7A68D2430A401A640C37E4
:100EF000BD465DF8047B70470038024080B584B081
:100F000002AF78600B46FB707A68194B9A420BD19E
:100F1000FB784FF482720092002201921448194625
:100F20000022202300F0C6F87A68124B9A420BD1B7
:100F3000FB784FF482720092002201920D4819460C
:100F40000022202300F0B6F87A680B4B9A420BD1AE
:100F5000FB784FF4827200920022019206481946F3
:100F60000022202300F0A6F80837BD4680BD00BF50
:100F70000030014000380040003C004080B487B0A1
:100F800000AFF860B9607A603B60FB681B889BB279
:100F900003F04003002B00D136E000BFFB681B8943
:100FA0009BB203F00303002BF8D0FB681B899BB2B4
:100FB00003F08003002BF1D100237B6120E0BA68AD
:100FC0007B6913441B781A46FB689A8100BFFB6853
:100FD0001B899BB203F00303002BF8D0FB681B892D
:100FE0009BB203F08003002BF1D17A687B69134434
:100FF000FA68928992B2D2B21A707B6901337B612E
:101000007A693B689A42DAD31C37BD465DF8047BA7
:10101000704700BF80B487B000AFF860B9607A60F5
:10102000FB681B889BB203F04003002B00D130E02B
:1010300000BFFB681B899BB203F00303002BF8D0B1
:10104000FB681B899BB203F08003002BF1D10023C6
:101050007B611AE0BA687B6913441B781A46FB6807
:101060009A8100BFFB681B899BB203F00303002B2E
:10107000F8D0FB681B899BB203F08003002BF1D1F1
:10108000FB689B897B6901337B617A697B689A4243
:10109000E0D31C37BD465DF8047B704780B483B055
:1010A00000AF78600B467B800C37BD465DF8047B53
:1010B000704700BF80B588B000AF7860F970BA7033
:1010C0003B8007F10C03184600F05AFA7A68394B56
:1010D0009A420BD1384B384A526C42F480525A64CF
:1010E000FB78184600F06EF800233B827A68334B99
:1010F0009A420BD1304B304A126C42F480421A644F
:10110000FB78184600F08EF800233B827A682C4B5F
:101110009A420BD1284B284A126C42F400421A64BE
:10112000FB78184600F0C8F800233B823B883B83DD
:101130000023BB81BB8D7B833B8DFB814FF4007310
:10114000FB82BB78002B04D100237B820023BB826F
:1011500016E0BB78012B04D100237B820123BB82E4
:101160000EE0BB78022B04D102237B820023BB82DA
:1011700006E0BB78032B03D102237B820123BB82D1
:101180007B681B889BB223F040039AB27B681A806D
:1011900007F10C037868194600F0AEF97B681B88EC
:1011A0009BB243F040039AB27B681A802037BD4659
:1011B00080BD00BF003001400038024000380040D0
:1011C000003C004080B584B002AF0346FB71FB7960
:1011D000002B09D103230093052301930E48E0213E
:1011E0000022002300F00CFAFB79012B09D1032324
:1011F000009305230193094838210022002300F0C1
:10120000FFF9FB79032B03D105480521FFF746FFC2
:101210000837BD4680BD00BF000002400004024008
:101220000030014080B584B002AF0346FB71FB790A
:10123000002B14D103230093052301931A484FF484
:1012400080610022002300F0DBF9032300930523D3
:10125000019316480C210022002300F0D1F9FB79FC
:10126000012B0AD103230093052301930E484FF469
:1012700060410022002300F0C3F9FB79022B09D161
:10128000032300930523019309480D210022002325
:1012900000F0B6F9FB79032B03D106480521FFF7CF
:1012A000FDFE0837BD4680BD000402400008024034
:1012B000002002400038004080B584B002AF0346F1
:1012C000FB71FB79002B09D10323009306230193C3
:1012D0000E4838210022002300F092F9FB79012BFF
:1012E0000AD1032300930623019309484FF4E051E8
:1012F0000022002300F084F9FB79032B03D1054879
:101300000621FFF7CBFE0837BD4680BD0004024032
:1013100000080240003C004080B487B000AF786015
:10132000396000237B6100233B610023FB600023C5
:101330007B6176E07B69012202FA03F33B613B6843
:101340001A683B691340FB60FA683B699A4265D1B1
:101350007B681A687B695B00032101FA03F3DB43B6
:101360001A407B681A607B681A683B681B791946CB
:101370007B695B0001FA03F31A437B681A603B68E0
:101380001B79012B03D03B681B79022B2ED17B6884
:101390009A687B695B00032101FA03F3DB431A407F
:1013A0007B689A607B689A683B685B7919467B69C1
:1013B0005B0001FA03F31A437B689A607B685A6802
:1013C0007B699BB2012101FA03F3DB431A407B687E
:1013D0005A607B685A683B689B7919467B699BB267
:1013E00001FA03F39BB21A437B685A607B68DA68A0
:1013F0007B699BB25B00032101FA03F3DB431A40D4
:101400007B68DA607B68DA683B68DB7919467B6960
:101410005B0001FA03F31A437B68DA607B690133EE
:101420007B617B690F2B85D91C37BD465DF8047B3A
:10143000704700BF80B483B000AF78600B467B80FC
:101440007B687A881A830C37BD465DF8047B704749
:1014500080B483B000AF78600B467B807B687A886D
:101460005A830C37BD465DF8047B704780B485B065
:1014700000AF786013460A467A807B700023FB60D9
:101480000023BB607A787B8803F007039B0002FA95
:1014900003F3FB607B88DB089BB21A467B88DB0882
:1014A0009BB219467B68083153F821107B8803F002
:1014B00007039B000F2000FA03F3DB4319407B680E
:1014C000083243F822107B88DB089BB21A467B68FF
:1014D000083253F82220FB681343BB607B88DB088B
:1014E0009BB21A467B680832B96843F82210143759
:1014F000BD465DF8047B704780B485B000AF78606E
:1015000039600023FB817B681B88FB81FB8903F426
:101510004153FB813B681A883B685B8813439AB24E
:101520003B689B8813439AB23B68DB8813439AB2AB
:101530003B681B8913439AB23B685B8913439AB299
:101540003B689B8913439AB23B68DB8913439AB289
:10155000FB891343FB817B68FA891A807B689B8B2C
:101560009BB223F400639AB27B689A833B681A8A21
:101570007B681A821437BD465DF8047B704700BF54
:1015800080B483B000AF78607B6800221A807B68EB
:1015900000225A807B6800229A807B680022DA80D1
:1015A0007B6800221A817B6800225A817B680022B6
:1015B0009A817B680022DA817B6807221A820C37C5
:1015C000BD465DF8047B704780B584B002AF78609B
:1015D00079807A703B707B88002B00D10CE07868B2
:1015E00000F06CF879887A783B78387C0090387D08
:1015F0000190786800F078F80837BD4680BD00BFDC
:1016000080B586B002AF786079807A703B707B8855
:10161000002B00D13CE0786800F050F80023FB601C
:1016200028E07A88FB6842FA03F303F00103002BF9
:1016300000D11CE0FB68DA08FB68D9087B68083138
:1016400053F82110FB6803F007039B000F2000FAFA
:1016500003F3DB431940387FFB6803F007039B006B
:1016600000FA03F319437B68083243F82210FB6841
:101670000133FB60FB680F2BD3D97A887B783978EC
:101680000091397E019178681146022200F02CF811
:101690001037BD4680BD00BF80B483B000AF786016
:1016A0007B6803F13F4303F57E039B0A9BB2184618
:1016B0000C37BD465DF8047B704700BFB0B582B003
:1016C00000AF7860074C074B1D6B7868FFF7E4FFAD
:1016D0000346012202FA03F32B4323630837BD4676
:1016E000B0BD00BF0038024080B584B000AF786064
:1016F00079807A703B707868FFF7CEFF0346BB7342
:101700000023FB7366E07A88FB7B42FA03F303F065
:101710000103002B00D15AE0BA7BB97B304B33F880
:10172000113099B2FB7B012000FA03F39BB20B430B
:101730009BB299B22A4B23F812107B68DA68FB7BC4
:101740005B00032101FA03F3DB431A40397EFB7B84
:101750005B0001FA03F31A437B68DA607B681A685E
:10176000FB7B5B00032101FA03F3DB431A4079782A
:10177000FB7B5B0001FA03F31A437B681A607B78FA
:10178000012B02D07B78022B21D17B685A68FB7B2E
:10179000012101FA03F39BB2DB431A403978FB7B4A
:1017A00001FA03F39BB21A437B685A607B689A681C
:1017B000FB7B5B00032101FA03F3DB431A40397F13
:1017C000FB7B5B0001FA03F31A437B689A60FB7BA7
:1017D0000133FB73FB7B0F2B95D91037BD4680BDC2
:1017E0001400002080B485B000AF78603960002319
:1017F000FB817B681B88FB817A68284B9A4213D057
:101800007A68274B9A420FD07B68B3F1804F0BD098
:101810007A68244B9A4207D07A68234B9A4203D0C5
:101820007A68224B9A4208D1FB8923F07003FB812E
:101830003B685A88FB891343FB817A681C4B9A42A8
:101840000CD07A681B4B9A4208D0FB8923F4407372
:10185000FB813B681A89FB891343FB817B68FA890A
:101860001A803B685A687B68DA623B681A887B6832
:101870001A857A68094B9A4203D07A68084B9A42D3
:1018800004D13B689B7A1A467B681A867B680122E2
:101890009A821437BD465DF8047B70470000014012
:1018A000000401400004004000080040000C00401B
:1018B000001000400014004080B483B000AF786096
:1018C0000B46FB70FB78002B08D07B681B889BB213
:1018D00043F001039AB27B681A8007E07B681B889B
:1018E0009BB223F001039AB27B681A800C37BD4685
:1018F0005DF8047B704700BF80B485B000AF7860AE
:10190000396000237B810023FB810023BB817B683E
:101910001B8C9BB223F001039AB27B681A847B680C
:101920001B8CFB817B689B88BB817B681B8B7B81CD
:101930007B8923F070037B817B8923F003037B8108
:101940003B681A887B8913437B81FB8923F0020360
:10195000FB813B689A89FB891343FB813B685A886A
:10196000FB891343FB817A681E4B9A4203D07A6845
:101970001D4B9A4223D1FB8923F00803FB813B686E
:10198000DA89FB891343FB81FB8923F00403FB8184
:101990003B689A88FB891343FB81BB8923F48073DE
:1019A000BB81BB8923F40073BB813B681A8ABB8966
:1019B0001343BB813B685A8ABB891343BB817B6855
:1019C000BA899A807B687A891A833B689A687B68AF
:1019D0005A637B68FA891A841437BD465DF8047B24
:1019E000704700BF000001400004014080B485B092
:1019F00000AF7860396000237B810023FB810023E6
:101A0000BB817B681B8C9BB223F010039AB27B686E
:101A10001A847B681B8CFB817B689B88BB817B68FD
:101A20001B8B7B817B8923F4E0437B817B8923F4BF
:101A300040737B813B681B881B029AB27B891343EE
:101A40007B81FB8923F02003FB813B689B891B0181
:101A50009AB2FB891343FB813B685B881B019AB2F6
:101A6000FB891343FB817A68224B9A4203D07A6840
:101A7000214B9A422BD1FB8923F08003FB813B68E9
:101A8000DB891B019AB2FB891343FB81FB8923F09D
:101A90004003FB813B689B881B019AB2FB8913437F
:101AA000FB81BB8923F48063BB81BB8923F4006382
:101AB000BB813B681B8A9B009AB2BB891343BB81E5
:101AC0003B685B8A9B009AB2BB891343BB817B68EE
:101AD000BA899A807B687A891A833B689A687B689E
:101AE0009A637B68FA891A841437BD465DF8047BD3
:101AF000704700BF000001400004014080B485B081
:101B000000AF7860396000237B810023FB810023D4
:101B1000BB817B681B8C9BB223F480739AB27B6879
:101B20001A847B681B8CFB817B689B88BB817B68EC
:101B30009B8B7B817B8923F070037B817B8923F0E6
:101B400003037B813B681A887B8913437B81FB8974
:101B500023F40073FB813B689B891B029AB2FB89CB
:101B60001343FB813B685B881B029AB2FB891343DA
:101B7000FB817A68224B9A4203D07A68214B9A42C1
:101B80002BD1FB8923F40063FB813B68DB891B02BB
:101B90009AB2FB891343FB81FB8923F48063FB81A9
:101BA0003B689B881B029AB2FB891343FB81BB896C
:101BB00023F48053BB81BB8923F40053BB813B6872
:101BC0001B8A1B019AB2BB891343BB813B685B8AAA
:101BD0001B019AB2BB891343BB817B68BA899A8087
:101BE0007B687A899A833B689A687B68DA637B684A
:101BF000FA891A841437BD465DF8047B704700BF2C
:101C0000000001400004014080B485B000AF78605E
:101C100039600023BB8100237B810023FB817B682B
:101C20001B8C9BB223F480539AB27B681A847B6826
:101C30001B8C7B817B689B88FB817B689B8BBB813A
:101C4000BB8923F4E043BB81BB8923F44073BB8190
:101C50003B681B881B029AB2BB891343BB817B89FB
:101C600023F400537B813B689B891B039AB27B89D9
:101C700013437B813B685B881B039AB27B891343C8
:101C80007B817A68114B9A4203D07A68104B9A4252
:101C90000AD1FB8923F48043FB813B681B8A9B01AB
:101CA0009AB2FB891343FB817B68FA899A807B682F
:101CB000BA899A833B689A687B681A647B687A89D8
:101CC0001A841437BD465DF8047B7047000001405C
:101CD0000004014080B483B000AF786039607B6855
:101CE0003A685A630C37BD465DF8047B704700BF05
:101CF00080B483B000AF786039607B683A689A63DB
:101D00000C37BD465DF8047B704700BF80B483B0DC
:101D100000AF786039607B683A68DA630C37BD469B
:101D20005DF8047B704700BF80B483B000AF78607B
:101D300039607B683A681A640C37BD465DF8047BED
:101D4000704700BF80B485B000AF78600B467B80E1
:101D50000023FB817B681B8BFB81FB8923F008033D
:101D6000FB81FA897B881343FB817B68FA891A839C
:101D70001437BD465DF8047B704700BF80B485B062
:101D800000AF786013460A467A803B800023FB81CF
:101D90007B88012202FA03F3FB817B681B8C9AB2D9
:101DA000FB89DB439BB213409AB27B681A847B6841
:101DB0001B8C9AB239887B8801FA03F39BB21343D8
:101DC0009AB27B681A841437BD465DF8047B70476D
:101DD00081F0004102E000BF83F0004330B54FEADC
:101DE00041044FEA430594EA050F08BF90EA020F49
:101DF0001FBF54EA000C55EA020C7FEA645C7FEADC
:101E0000655C00F0E2804FEA5454D4EB5555B8BFFE
:101E10006D420CDD2C4480EA020281EA030382EA6F
:101E2000000083EA010180EA020281EA0303362D01
:101E300088BF30BD11F0004F4FEA01314FF4801CD4
:101E40004CEA113102D0404261EB410113F0004FE6
:101E50004FEA03334CEA133302D0524263EB43039D
:101E600094EA050F00F0A780A4F10104D5F1200E3B
:101E70000DDB02FA0EFC22FA05F2801841F1000196
:101E800003FA0EF2801843FA05F359410EE0A5F16A
:101E900020050EF1200E012A03FA0EFC28BF4CF09B
:101EA000020C43FA05F3C01851EBE37101F0004551
:101EB00007D54FF0000EDCF1000C7EEB00006EEB5E
:101EC0000101B1F5801F1BD3B1F5001F0CD34908E8
:101ED0005FEA30004FEA3C0C04F101044FEA44523F
:101EE00012F5800F80F09A80BCF1004F08BF5FEAC6
:101EF000500C50F1000041EB045141EA050130BDA6
:101F00005FEA4C0C404141EB010111F4801FA4F148
:101F10000104E9D191F0000F04BF01460020B1FA9D
:101F200081F308BF2033A3F10B03B3F120020CDAD5
:101F30000C3208DD02F1140CC2F10C0201FA0CF0B3
:101F400021FA02F10CE002F11402D8BFC2F1200C18
:101F500001FA02F120FA0CFCDCBF41EA0C019040CE
:101F6000E41AA2BF01EB0451294330BD6FEA040417
:101F70001F3C1CDA0C340EDC04F11404C4F1200202
:101F800020FA04F001FA02F340EA030021FA04F314
:101F900045EA030130BDC4F10C04C4F1200220FA6B
:101FA00002F001FA04F340EA0300294630BD21FAA9
:101FB00004F0294630BD94F0000F83F4801306BF6F
:101FC00081F480110134013D4EE77FEA645C18BF63
:101FD0007FEA655C29D094EA050F08BF90EA020FFA
:101FE00005D054EA000C04BF1946104630BD91EAF2
:101FF000030F1EBF0021002030BD5FEA545C05D1F5
:102000004000494128BF41F0004130BD14F5800433
:102010003CBF01F5801130BD01F0004545F0FE41A7
:1020200041F470014FF0000030BD7FEA645C1ABFDC
:10203000194610467FEA655C1CBF0B46024650EA13
:10204000013406BF52EA033591EA030F41F400213F
:1020500030BD00BF90F0000F04BF0021704730B5C5
:102060004FF4806404F132044FF000054FF000019A
:1020700050E700BF90F0000F04BF0021704730B55B
:102080004FF4806404F1320410F0004548BF404230
:102090004FF000013EE700BF42004FEAE2014FEA85
:1020A00031014FEA02701FBF12F07F4393F07F4F60
:1020B00081F06051704792F0000F14BF93F07F4F92
:1020C000704730B54FF4607401F0004521F00041D5
:1020D00020E700BF50EA010208BF704730B54FF05B
:1020E00000050AE050EA010208BF704730B511F060
:1020F000004502D5404261EB41014FF4806404F198
:1021000032045FEA915C3FF4DCAE4FF003025FEA19
:10211000DC0C18BF03325FEADC0C18BF033202EBA1
:10212000DC02C2F1200300FA03FC20FA02F001FAFB
:1021300003FE40EA0E0021FA02F11444C1E600BF9A
:1021400070B54FF0FF0C4CF4E06C1CEA11541DBF4D
:102150001CEA135594EA0C0F95EA0C0F00F0DEF818
:102160002C4481EA030621EA4C5123EA4C5350EAFD
:10217000013518BF52EA033541F4801143F480134E
:1021800038D0A0FB02CE4FF00005E1FB02E506F0DF
:102190000042E0FB03E54FF00006E1FB03569CF034
:1021A000000F18BF4EF0010EA4F1FF04B6F5007F3A
:1021B00064F5407404D25FEA4E0E6D4146EB0606AC
:1021C00042EAC62141EA55514FEAC52040EA5E5035
:1021D0004FEACE2EB4F1FD0C88BFBCF5E06F1ED8DF
:1021E000BEF1004F08BF5FEA500E50F1000041EB16
:1021F000045170BD06F0004646EA010140EA0200C3
:1022000081EA0301B4EB5C04C2BFD4EB0C0541EAE4
:10221000045170BD41F480114FF0000E013C00F3F9
:10222000AB8014F1360FDEBF002001F0004170BD1D
:10223000C4F10004203C35DA0C341BDC04F1140436
:10224000C4F1200500FA05F320FA04F001FA05F2C2
:1022500040EA020001F0004221F0004110EBD3708F
:1022600021FA04F642EB06015EEA430E08BF20EABB
:10227000D37070BDC4F10C04C4F1200500FA04F35E
:1022800020FA05F001FA04F240EA020001F00041F0
:1022900010EBD37041F100015EEA430E08BF20EA63
:1022A000D37070BDC4F1200500FA05F24EEA020EAB
:1022B00020FA04F301FA05F243EA020321FA04F0DA
:1022C00001F0004121FA04F220EA020000EBD37091
:1022D0005EEA430E08BF20EAD37070BD94F0000F91
:1022E0000FD101F00046400041EB010111F4801FC5
:1022F00008BF013CF7D041EA060195F0000F18BF76
:10230000704703F00046520043EB030313F4801FB1
:1023100008BF013DF7D043EA0603704794EA0C0F6B
:102320000CEA135518BF95EA0C0F0CD050EA410681
:1023300018BF52EA4306D1D181EA030101F00041FE
:102340004FF0000070BD50EA410606BF1046194626
:1023500052EA430619D094EA0C0F02D150EA013632
:1023600013D195EA0C0F05D152EA03361CBF104673
:1023700019460AD181EA030101F0004141F0FE4112
:1023800041F470014FF0000070BD41F0FE4141F496
:10239000780170BD70B54FF0FF0C4CF4E06C1CEA96
:1023A00011541DBF1CEA135594EA0C0F95EA0C0F4B
:1023B00000F0A7F8A4EB050481EA030E52EA033506
:1023C0004FEA013100F088804FEA03334FF0805527
:1023D00045EA131343EA12634FEA022245EA111554
:1023E00045EA10654FEA00260EF000419D4208BF05
:1023F000964244F1FD0404F5407402D25B084FEAB2
:102400003202B61A65EB03055B084FEA32024FF45D
:1024100080104FF4002CB6EB020E75EB030E22BFBA
:10242000B61A754640EA0C005B084FEA3202B6EB7A
:10243000020E75EB030E22BFB61A754640EA5C0029
:102440005B084FEA3202B6EB020E75EB030E22BFB9
:10245000B61A754640EA9C005B084FEA3202B6EBBA
:10246000020E75EB030E22BFB61A754640EADC0079
:1024700055EA060E18D04FEA051545EA16754FEADB
:1024800006164FEAC30343EA52734FEAC2025FEAF9
:102490001C1CC0D111F4801F0BD141EA00014FF088
:1024A00000004FF0004CB6E711F4801F04BF014359
:1024B0000020B4F1FD0C88BFBCF5E06F3FF6AFAE75
:1024C000B5EB030C04BFB6EB020C5FEA500C50F105
:1024D000000041EB045170BD0EF0004E4EEA113188
:1024E00014EB5C04C2BFD4EB0C0541EA045170BD8F
:1024F00041F480114FF0000E013C90E645EA060ED3
:102500008DE60CEA135594EA0C0F08BF95EA0C0F00
:102510003FF43BAF94EA0C0F0AD150EA01347FF448
:1025200034AF95EA0C0F7FF425AF104619462CE71F
:1025300095EA0C0F06D152EA03353FF4FDAE104682
:10254000194622E750EA410618BF52EA43067FF4D3
:10255000C5AE50EA41047FF40DAF52EA43057FF463
:10256000EBAE12E74A0011D212F5001211D20DD5CE
:102570006FF47873B3EB62520ED44FEAC12343F089
:10258000004343EA505323FA02F070474FF0000033
:10259000704750EA013002D14FF0FF3070474FF0E2
:0425A0000000704780
:1025A400E7E7E7E7E70000007E7E7E7E7E0000002E
:0400000508000000EF
:00000001FF
