:020000040800F2
:100000000008002089010008E5010008E50100085A
:10001000E5010008E5010008E50100080000000016
:10002000000000000000000000000000E5010008E2
:10003000E501000800000000E5010008E5010008F6
:10004000E5010008E5010008E5010008E5010008F8
:10005000E5010008E5010008E5010008E5010008E8
:10006000E5010008E5010008E5010008E5010008D8
:10007000E5010008E5010008E5010008E5010008C8
:10008000E5010008E5010008E5010008E5010008B8
:10009000E5010008E5010008E5010008E5010008A8
:1000A000E5010008E5010008E5010008E501000898
:1000B000E5010008E5010008E5010008E501000888
:1000C000E5010008E5010008E5010008E501000878
:1000D000E5010008E5010008E5010008E501000868
:1000E000E5010008E5010008E5010008E501000858
:1000F000E5010008E5010008E5010008E501000848
:10010000E5010008E5010008E5010008E501000837
:10011000E5010008E5010008E5010008E501000827
:10012000E5010008E5010008E5010008E501000817
:10013000E5010008E5010008E5010008E501000807
:10014000E5010008E5010008E5010008E5010008F7
:10015000E5010008E5010008E5010008E5010008E7
:10016000E5010008E5010008E5010008E5010008D7
:10017000E5010008E5010008E5010008E5010008C7
:10018000E5010008E501000880B582B000AF104B22
:100190007B60104B3B6007E03B681A1D3A607A6851
:1001A000111D796012681A603A680B4B9A42F3D3BA
:1001B0000A480B494FF000028842B8BF40F8042BB0
:1001C000FFF6FAAF00F0C8F80837BD4680BD00BFA3
:1001D000600C00080000002000000020000000204B
:1001E0000000002080B400AFFEE700BF80B586B0FD
:1001F00000AF0820012100F011F94FF470433B617A
:1002000002233B7502237B750023FB750023BB751E
:1002100022480C21022200F0E7F920480D21022299
:1002200000F0E2F91D480E21022200F0DDF91B4822
:100230000F21022200F0D8F907F1100317481946E0
:1002400000F028F90220012100F0E8F80323BB6048
:1002500001233B7302237B730023FB730023BB73D7
:1002600007F108030E48194600F014F91020012187
:1002700000F0D4F84FF4FF433B6001233B710223AD
:100280007B710023FB710023BB713B460548194677
:1002900000F000F91837BD4680BD00BF000C0240D9
:1002A000000402400010024080B584B000AF04207A
:1002B000012100F0D1F88323BB800023FB807F2342
:1002C000BB600023BB810023BB730648082100F0FC
:1002D00081FC3B1D0348194600F0CCF91037BD46A0
:1002E00080BD00BF0008004080B586B000AF70231D
:1002F000BB8002233B820123FB800023FB603B1D6C
:100300001448194600F040FA3B1D1248194600F007
:10031000B5FA3B1D0F48194600F038FB3B1D0D4850
:10032000194600F0B9FB0B480021012200F06EFCD9
:1003300008480421012200F069FC06480821012236
:1003400000F064FC03480C21012200F05FFC183728
:10035000BD4680BD0008004080B500AFFFF746FFF6
:10036000FFF7A2FFFFF7C0FF2948012100F020F9A5
:100370002748022100F02AF92648802100F018F9C8
:1003800024484FF4807100F021F922484FF40071A5
:1003900000F00EF91F484FF4806100F017F91D4876
:1003A0004FF4006100F004F91A484FF4805100F056
:1003B0000DF918484FF4005100F0FAF815484FF4C1
:1003C000804100F003F91448012100F0BDF9124802
:1003D000002100F0C7FB1048002100F0D1FB0E48BF
:1003E000002100F0DBFB0C48002100F0E5FB0A488F
:1003F000282100F0B7FB0848282100F0C1FB06487F
:10040000282100F0CBFB0448282100F0D5FBEEE7C3
:1004100000040240001002400008004080B483B095
:1004200000AF78600B46FB70FB78002B06D0094BC1
:10043000084A116B7A680A431A6306E0054B054ABD
:10044000116B7A68D2430A401A630C37BD465DF8D7
:10045000047B70470038024080B483B000AF7860FE
:100460000B46FB70FB78002B06D0094B084A116C39
:100470007A680A431A6406E0054B054A116C7A68EB
:10048000D2430A401A640C37BD465DF8047B7047BE
:100490000038024080B487B000AF78603960002334
:1004A0007B6100233B610023FB6000237B6176E0DE
:1004B0007B69012202FA03F33B613B681A683B69DE
:1004C0001340FB60FA683B699A4265D17B681A6801
:1004D0007B695B00032101FA03F3DB431A407B686D
:1004E0001A607B681A683B681B7919467B695B0058
:1004F00001FA03F31A437B681A603B681B79012BEE
:1005000003D03B681B79022B2ED17B689A687B69EC
:100510005B00032101FA03F3DB431A407B689A6016
:100520007B689A683B685B7919467B695B0001FAD6
:1005300003F31A437B689A607B685A687B699BB2B5
:10054000012101FA03F3DB431A407B685A607B68A0
:100550005A683B689B7919467B699BB201FA03F3A1
:100560009BB21A437B685A607B68DA687B699BB2EE
:100570005B00032101FA03F3DB431A407B68DA6076
:100580007B68DA683B68DB7919467B695B0001FAB6
:1005900003F31A437B68DA607B6901337B617B6913
:1005A0000F2B85D91C37BD465DF8047B704700BF13
:1005B00080B483B000AF78600B467B807B687A881C
:1005C0001A830C37BD465DF8047B704780B483B056
:1005D00000AF78600B467B807B687A885A830C3743
:1005E000BD465DF8047B704780B485B000AF78608D
:1005F00013460A467A807B700023FB600023BB60B1
:100600007A787B8803F007039B0002FA03F3FB6010
:100610007B88DB089BB21A467B88DB089BB21946B5
:100620007B68083153F821107B8803F007039B0097
:100630000F2000FA03F3DB4319407B68083243F8CC
:1006400022107B88DB089BB21A467B68083253F87D
:100650002220FB681343BB607B88DB089BB21A46F1
:100660007B680832B96843F822101437BD465DF83C
:10067000047B704780B485B000AF78603960002398
:10068000FB817B681B88FB817A68284B9A4213D0D8
:100690007A68274B9A420FD07B68B3F1804F0BD01A
:1006A0007A68244B9A4207D07A68234B9A4203D047
:1006B0007A68224B9A4208D1FB8923F07003FB81B0
:1006C0003B685A88FB891343FB817A681C4B9A422A
:1006D0000CD07A681B4B9A4208D0FB8923F44073F4
:1006E000FB813B681A89FB891343FB817B68FA898C
:1006F0001A803B685A687B68DA623B681A887B68B4
:100700001A857A68094B9A4203D07A68084B9A4254
:1007100004D13B689B7A1A467B681A867B68012263
:100720009A821437BD465DF8047B70470000014093
:10073000000401400004004000080040000C00409C
:10074000001000400014004080B483B000AF786017
:100750000B46FB70FB78002B08D07B681B889BB294
:1007600043F001039AB27B681A8007E07B681B881C
:100770009BB223F001039AB27B681A800C37BD4606
:100780005DF8047B704700BF80B485B000AF78602F
:10079000396000237B810023FB810023BB817B68C0
:1007A0001B8C9BB223F001039AB27B681A847B688E
:1007B0001B8CFB817B689B88BB817B681B8B7B814F
:1007C0007B8923F070037B817B8923F003037B818A
:1007D0003B681A887B8913437B81FB8923F00203E2
:1007E000FB813B689A89FB891343FB813B685A88EC
:1007F000FB891343FB817A681E4B9A4203D07A68C7
:100800001D4B9A4223D1FB8923F00803FB813B68EF
:10081000DA89FB891343FB81FB8923F00403FB8105
:100820003B689A88FB891343FB81BB8923F480735F
:10083000BB81BB8923F40073BB813B681A8ABB89E7
:100840001343BB813B685A8ABB891343BB817B68D6
:10085000BA899A807B687A891A833B689A687B6830
:100860005A637B68FA891A841437BD465DF8047BA5
:10087000704700BF000001400004014080B485B013
:1008800000AF7860396000237B810023FB81002367
:10089000BB817B681B8C9BB223F010039AB27B68F0
:1008A0001A847B681B8CFB817B689B88BB817B687F
:1008B0001B8B7B817B8923F4E0437B817B8923F441
:1008C00040737B813B681B881B029AB27B89134370
:1008D0007B81FB8923F02003FB813B689B891B0103
:1008E0009AB2FB891343FB813B685B881B019AB278
:1008F000FB891343FB817A68224B9A4203D07A68C2
:10090000214B9A422BD1FB8923F08003FB813B686A
:10091000DB891B019AB2FB891343FB81FB8923F01E
:100920004003FB813B689B881B019AB2FB89134300
:10093000FB81BB8923F48063BB81BB8923F4006303
:10094000BB813B681B8A9B009AB2BB891343BB8166
:100950003B685B8A9B009AB2BB891343BB817B686F
:10096000BA899A807B687A891A833B689A687B681F
:100970009A637B68FA891A841437BD465DF8047B54
:10098000704700BF000001400004014080B485B002
:1009900000AF7860396000237B810023FB81002356
:1009A000BB817B681B8C9BB223F480739AB27B68FB
:1009B0001A847B681B8CFB817B689B88BB817B686E
:1009C0009B8B7B817B8923F070037B817B8923F068
:1009D00003037B813B681A887B8913437B81FB89F6
:1009E00023F40073FB813B689B891B029AB2FB894D
:1009F0001343FB813B685B881B029AB2FB8913435C
:100A0000FB817A68224B9A4203D07A68214B9A4242
:100A10002BD1FB8923F40063FB813B68DB891B023C
:100A20009AB2FB891343FB81FB8923F48063FB812A
:100A30003B689B881B029AB2FB891343FB81BB89ED
:100A400023F48053BB81BB8923F40053BB813B68F3
:100A50001B8A1B019AB2BB891343BB813B685B8A2B
:100A60001B019AB2BB891343BB817B68BA899A8008
:100A70007B687A899A833B689A687B68DA637B68CB
:100A8000FA891A841437BD465DF8047B704700BFAD
:100A9000000001400004014080B485B000AF7860E0
:100AA00039600023BB8100237B810023FB817B68AD
:100AB0001B8C9BB223F480539AB27B681A847B68A8
:100AC0001B8C7B817B689B88FB817B689B8BBB81BC
:100AD000BB8923F4E043BB81BB8923F44073BB8112
:100AE0003B681B881B029AB2BB891343BB817B897D
:100AF00023F400537B813B689B891B039AB27B895B
:100B000013437B813B685B881B039AB27B89134349
:100B10007B817A68114B9A4203D07A68104B9A42D3
:100B20000AD1FB8923F48043FB813B681B8A9B012C
:100B30009AB2FB891343FB817B68FA899A807B68B0
:100B4000BA899A833B689A687B681A647B687A8959
:100B50001A841437BD465DF8047B704700000140DD
:100B60000004014080B483B000AF786039607B68D6
:100B70003A685A630C37BD465DF8047B704700BF86
:100B800080B483B000AF786039607B683A689A635C
:100B90000C37BD465DF8047B704700BF80B483B05E
:100BA00000AF786039607B683A68DA630C37BD461D
:100BB0005DF8047B704700BF80B483B000AF7860FD
:100BC00039607B683A681A640C37BD465DF8047B6F
:100BD000704700BF80B485B000AF78600B467B8063
:100BE0000023FB817B681B8BFB81FB8923F00803BF
:100BF000FB81FA897B881343FB817B68FA891A831E
:100C00001437BD465DF8047B704700BF80B485B0E3
:100C100000AF786013460A467A803B800023FB8150
:100C20007B88012202FA03F3FB817B681B8C9AB25A
:100C3000FB89DB439BB213409AB27B681A847B68C2
:100C40001B8C9AB239887B8801FA03F39BB2134359
:100C50009AB27B681A841437BD465DF8047B7047EE
:0400000508000000EF
:00000001FF
