:020000040800F2
:10000000B01800200D150008891B0008951B00087A
:10001000A11B0008AD1B0008B91B00080000000070
:10002000000000000000000000000000C51B0008E8
:10003000D11B000800000000DD1B0008591B000850
:100040006915000869150008691500086915000898
:100050006915000869150008691500086915000888
:100060006915000869150008691500086915000878
:100070006915000869150008691500086915000868
:100080006915000869150008691500086915000858
:100090006915000869150008691500086915000848
:1000A0006915000869150008691500086915000838
:1000B0006915000869150008691500086915000828
:1000C0006915000869150008691500086915000818
:1000D0006915000869150008691500086915000808
:1000E0006915000869150008F91B00086915000862
:1000F00069150008691500086915000869150008E8
:1001000069150008691500086915000869150008D7
:1001100069150008691500086915000869150008C7
:1001200069150008691500086915000869150008B7
:1001300069150008691500086915000869150008A7
:10014000691500086915000869150008E91B000811
:100150006915000869150008691500086915000887
:100160006915000869150008691500086915000877
:100170006915000869150008691500086915000867
:10018000691500086915000880B485B000AF786073
:100190000023FB607B68DB684FF0FF325A607B68AE
:1001A000DB684FF0FF325A61FB7B43F08003FB7347
:1001B0007B7B43F008037B737B68DB68FA689A619A
:1001C0001437BD465DF8047B704700BF80B586B02C
:1001D00000AF78600023FB7400237B610023FB6089
:1001E000032002F073F97B68DB681B69FB607B69A5
:1001F00001337B617A69174B9A4201D9002325E0CC
:10020000FB68C3F3C073DBB2002BE9D000237B6132
:10021000FB6843F00103FB607B68DB68FA681A61E6
:100220007B68DB681B69FB607B6901337B617A69F2
:10023000084B9A4200D905E0FB68C3F30003DBB228
:10024000012BEDD0032002F041F9FB7C1846183752
:10025000BD4680BD400D030080B489B000AFF8609A
:10026000B960FA71BB800023FB76FB68DB78002B5A
:1002700022D100237B610023FB61BB880333002B69
:1002800000DA03339B107B61FB79FA6832339B0001
:1002900013449B683B610023FB6109E0BB681A685B
:1002A0003B691A60FB690133FB61BB680433BB60C7
:1002B000FA697B699A42F1D3FB7E18462437BD4622
:1002C0005DF8047B704700BF80B489B000AFF86070
:1002D000B9601346FB800023FB61FB880333002BCE
:1002E00000DA03339B10BB61FB68D3F8D0307B612D
:1002F0000023FB6109E07B691A68BB681A60FB692F
:100300000133FB61BB680433BB60FA69BB699A4285
:10031000F1D3BB6818462437BD465DF8047B7047AF
:1003200080B487B000AF78600B46FB7000233B6160
:100330000023FB737B680022DA707B6801229A70CD
:100340007B6840229A80FB78012B13D14FF0A043A9
:100350003B617B680122DA727B6808221A707B6835
:1003600004225A707B684FF4A072DA807B68022204
:100370001A7211E0FB78002B0ED1454B3B617B6874
:100380000022DA727B680C221A707B6806225A708F
:100390007B684FF4A062DA803A697B68DA603B6977
:1003A00003F500631A467B681A6100237B611CE039
:1003B0007B695A013B69134403F510631A46796857
:1003C0007B6904339B000B449A607B695A013B694B
:1003D000134403F530631A4679687B6914339B0034
:1003E0000B445A607B6901337B617B685B781A46FA
:1003F0007B699A42DCD83B6903F580631A467B68C7
:100400005A613B6903F588631A467B68C3F8CC20C0
:1004100000237B610FE07B695A013B69134403F5BC
:10042000A0631A4679687B6922339B000B449A606B
:100430007B6901337B617B681B781A467B699A4232
:10044000E9D800237B610FE07B691A033B69134401
:1004500003F580531A4679687B6932339B000B445D
:100460009A607B6901337B617B681B781A467B69E4
:100470009A42E9D83B6903F560631A467B68C3F882
:100480000C21FB7B18461C37BD465DF8047B70478A
:100490000000044080B588B000AF78600023FB778F
:1004A0000023BB6100237B610023FB607B681B7A18
:1004B000012B4FD17B68DB689B6B7B61BB7D6FF34E
:1004C0000003BB757B685B7A002B03D0BB7D43F0D8
:1004D0001003BB757B68DB687A699A630023BB6194
:1004E0007B68DB68DB68BB613B7E6FF386133B7622
:1004F000BB7E6FF38613BB763B7E43F010033B76E7
:100500003B7E6FF3C3033B763B7E6FF3C7133B76B3
:10051000BB7E6FF34103BB76BB7E6FF3C303BB7639
:100520007B68DB68BA69DA607868FFF74FFE7B6842
:10053000DB78012B40F082803B7B052262F3440391
:100540003B733B7B43F020033B737B68DB68FA68BB
:100550009A6073E07B68DB68DB68BB613B7E43F0DD
:1005600040033B767B68DB68BA69DA607868FFF73E
:100570002DFE00237B61BB7D43F00103BB757B68CF
:100580001B7A032B03D1BB7D43F00203BB75BB7DFC
:1005900043F00403BB75BB7D43F00803BB75BB7D13
:1005A00043F02003BB757B685B7A002B03D0BB7DD7
:1005B00043F01003BB757B68DB687A699A6314208B
:1005C00001F0A8FF7B68DB68DB68BB617B681B7A96
:1005D000032B03D1BB7E43F00103BB767B68DB6852
:1005E000BA69DA607B681B7A032B27D17B68DB68EA
:1005F0001B6B3B61FB7C012262F38303FB74BB7CBE
:100600006FF3C713BB74FB7C43F01003FB74BB7C1C
:100610002D2262F30603BB747B68DB683A691A63B8
:10062000C82001F077FFBB7C43F08003BB747B687C
:10063000DB683A691A63C82001F06CFF7B68DB78DD
:10064000012B10D17B68DB689B68FB603B7B05223C
:1006500062F344033B733B7B43F020033B737B68B3
:10066000DB68FA689A60FB7F18462037BD4680BD7C
:1006700080B485B000AF78600023FB730023BB60BB
:100680003B7A43F001033B727B68DB687A68D2688F
:100690009168BA680A439A60FB7B18461437BD46D6
:1006A0005DF8047B704700BF80B485B000AF786010
:1006B0000023FB730023BB603B7A43F001033B72D2
:1006C0007B68DB687A68D2689168BA68D2430A406E
:1006D0009A60FB7B18461437BD465DF8047B704773
:1006E00080B586B000AF786039600023FB740023CA
:1006F0007B610023FB60FB6843F02003FB603B68E9
:10070000DBB203F01F03DAB2FB6862F38A13FB600B
:100710007B68DB68FA681A617B68DB681B69FB60D1
:100720007B6901337B617A69084B9A4200D905E005
:10073000FB68C3F34013DBB2012BEDD0032001F0C3
:10074000C5FEFB7C18461837BD4680BD400D030032
:1007500080B586B000AF78600023FB7400237B6116
:100760000023FB60FB6843F01003FB607B68DB68E1
:10077000FA681A617B68DB681B69FB607B6901337F
:100780007B617A69084B9A4200D905E0FB68C3F3A4
:100790000013DBB2012BEDD0032001F097FEFB7CB0
:1007A00018461837BD4680BD400D030080B584B0A3
:1007B00000AF78600B46FB700023FB737B68DB683F
:1007C000DB68BB60FB7A6FF34513FB72FB7A6FF358
:1007D0008613FB72FB78012B04D1FB7A43F02003D4
:1007E000FB7206E0FB78002B03D1FB7A43F0400359
:1007F000FB727B68DB68BA68DA60322001F08AFE3F
:10080000FB7B18461037BD4680BD00BF80B483B067
:1008100000AF78607B68DB685B6903F00103184612
:100820000C37BD465DF8047B704700BF80B582B0D1
:1008300000AF78607868FFF7E9FF0346012B0CBF33
:1008400000230123DBB218460837BD4680BD00BF38
:1008500080B485B000AF78600023FB607B68DB6804
:100860005B69FB607B68DB689B69FA681340FB602F
:10087000FB6818461437BD465DF8047B704700BF1F
:1008800080B485B000AF78600B46FB707B681B6955
:100890001B68FB60FB7803F00303DAB23B7B62F377
:1008A00001033B737B681B69FA681A601437BD4605
:1008B0005DF8047B704700BF80B58CB000AF7860F6
:1008C000002387F82B3000237B6200233B62002348
:1008D000FB610023BB6100237B617B68D3F80C3193
:1008E00000221A607B681B691B683B6297F8213005
:1008F0006FF3C40387F821307B681B693A6A1A607A
:100900007B68DB7A012B40D178680321FFF7B8FFC1
:100910007B68DB6880225A62FB8B402262F30F0304
:10092000FB83BB8B802262F30F03BB837B68DB6896
:10093000FA699A62BA8BFB8B13449BB23B837B8B25
:10094000802262F30F037B837B68DB68BA69C3F89C
:1009500004213A8B7B8B13449BB23B837B8B6FF3DD
:100960000F037B837B68DB68BA69C3F808213A8B85
:100970007B8B13449BB23B837B8B6FF30F037B8397
:100980007B68DB68BA69C3F80C2178681021FFF72F
:10099000A7FE7868FFF7DCFE7B681B6900221A61FE
:1009A0007B681B6900225A617B681B694FF0FF322C
:1009B0009A617B681B690022DA610023FB623AE0DE
:1009C0007A68FB6A04339B0013449B681B687B6254
:1009D00097F82730C3F3C013DBB2002B0ED00023EF
:1009E0007B6297F8273043F0400387F8273097F869
:1009F000273043F0080387F8273001E000237B62AB
:100A00007A68FB6A04339B0013449B687A6A1A6015
:100A10007A68FB6A04339B0013449B6800221A61C6
:100A20007A68FB6A04339B0013449B68FF229A6038
:100A3000FB6A0133FB627B685B781A46FB6A9A4269
:100A4000BED80023FB6235E07A68FB6A14339B0052
:100A500013445B681B68FB60FB7BC3F3C013DBB212
:100A6000002B0AD00023FB60FB7B43F04003FB73A9
:100A7000FB7B43F00803FB7301E00023FB607A6813
:100A8000FB6A14339B0013445B68FA681A607A6847
:100A9000FB6A14339B0013445B6800221A617A6876
:100AA000FB6A14339B0013445B68FF229A60FB6A65
:100AB0000133FB627B685B781A46FB6A9A42C3D8B3
:100AC00000237B617B7D43F001037B757B681B69A1
:100AD0007A68126911697A69D24311407A690A43C6
:100AE0001A617B68DB78012B1BD100233B613B7CC7
:100AF00043F001033B743B7C43F002033B743B8AAD
:100B0000402262F38A033B82BB7C43F00103BB7447
:100B10007B8A402262F349037B827B681B693A69C6
:100B20001A63786800F006F897F82B3018463037CB
:100B3000BD4680BD80B584B000AF78600023FB73F4
:100B40000023BB607B68DB6800229A617B68DB68FE
:100B50004FF0FF325A617868FFF716FB7B68DB784D
:100B6000002B03D13B7A43F010033B727B7A43F0B6
:100B700008037B727B7A43F010037B727B7A43F02D
:100B800020037B72BB7A43F00403BB72BB7A43F051
:100B90000803BB723B7A43F008033B72BB7A43F015
:100BA0001003BB72BB7A43F02003BB727B68DB6827
:100BB0007A68D2689169BA68D2431140BA680A4328
:100BC0009A61FB7B18461037BD4680BD80B485B066
:100BD00000AF78600023FB737B681B699B68BB6078
:100BE0003B7AC3F34103DBB2022B09D0032B04D0C1
:100BF000012B02D00323FB7305E00223FB7302E009
:100C00000123FB7300BFFB7B18461437BD465DF81C
:100C1000047B704780B487B000AF78600023FB7519
:100C20000023BB607B681B699B683B617B689B6999
:100C30001B68FB603B7CC3F34103DBB2022B04D097
:100C4000BB896FF30A03BB8105E0BB89032262F312
:100C50000A03BB8100BF7B689B69FA681A607B7AD4
:100C600043F001037B727B681B697A6812695168E3
:100C7000BA68D2431140BA680A435A60FB7D1846ED
:100C80001C37BD465DF8047B704700BF80B487B059
:100C900000AF786039600023FB740023FB60002301
:100CA000BB603B685B78012B0FD13B681B787A688F
:100CB00004339B0013449B687B613B681B780122D3
:100CC00002FA03F39BB23B810EE03B681B787A6823
:100CD00014339B0013445B687B613B681B780122E3
:100CE00002FA03F39BB27B817B691B68FB607B7B11
:100CF000C3F3C013DBB2002B27D13B689B689BB2C8
:100D0000C3F30A039AB2BB8962F30A03BB813B684F
:100D1000DB7803F00303DAB2BB7B62F38303BB73BC
:100D20003B68DB88DBB203F00F03DAB2FB8962F3C6
:100D30008913FB81FB7B43F01003FB737B7B43F048
:100D400080037B73FA687B691A607B681B697A6829
:100D50001269D169BA680A43DA61FB7C18461C370C
:100D6000BD465DF8047B704780B487B000AF786003
:100D700039600023FB740023FB600023BB603B68E9
:100D80005B78012B0FD13B681B787A6804339B009A
:100D900013449B687B613B681B78012202FA03F3D2
:100DA0009BB23B810EE03B681B787A6814339B0052
:100DB00013445B687B613B681B78012202FA03F3F2
:100DC0009BB27B817B7B6FF3C7137B73FA687B6974
:100DD0001A607B681B697A681269D169BA68D24364
:100DE0000A40DA61FB7C18461C37BD465DF8047B7F
:100DF000704700BF80B588B000AF786039600023CD
:100E0000FB770023BB6100237B6100233B613B68D0
:100E10005B78012B40F0AB803B681B787A68043329
:100E20009B0013449B681B687B613B681B787A6856
:100E300004339B0013449B681B693B613B685B69FF
:100E4000002B09D13B696FF312033B617B8A0122BE
:100E500062F3CC037B8222E03B685B69C3F312023E
:100E60003B6962F312033B613B685A693B689B68CC
:100E700013445A1E3B689B68B2FBF3F39BB2C3F367
:100E800009039AB27B8A62F3CC037B823B68DB78EE
:100E9000012B04D1FB7C012262F34613FB743B68F7
:100EA0001B787A6804339B0013449B683A691A6183
:100EB0007B68DB78012B0AD13B681B787A680433A6
:100EC0009B0013449B683A6812695A6115E03B68BD
:100ED000DB78012B11D03B685B69002B0DD03B68A0
:100EE0001B78012202FA03F3BB617B681B697A68F5
:100EF0001269516BBA690A435A633B68DB78012B6C
:100F000014D17B681B699B68FB60FB68C3F30D23EE
:100F10009BB203F00103002B04D1FB7D43F02003BF
:100F2000FB7503E0FB7D43F01003FB75FB7D43F095
:100F30000403FB75FB7D43F08003FB753B681B7866
:100F40007A6804339B0013449B687A691A603B6893
:100F5000DB78012B40F088803B68D9683B681A78C1
:100F60003B685B699BB27868FFF776F97CE03B6889
:100F70001B787A6814339B0013445B681B687B61A1
:100F80003B681B787A6814339B0013445B681B69C9
:100F90003B613B685B69002B0DD13B689B68C3F3E9
:100FA00012023B6962F312033B617B8A012262F306
:100FB000CC037B821FE03B685A693B689B68134403
:100FC0005A1E3B689B68B2FBF3F39BB2C3F3090361
:100FD0009AB27B8A62F3CC037B827B8AC3F3C90318
:100FE0009BB23A68926802FB03F3C3F312023B69B7
:100FF00062F312033B613B681B787A6814339B00F1
:1010000013445B683A691A617B68DB78012B09D16C
:101010003B681B787A6814339B0013445B683A681A
:1010200012695A613B68DB78012B0CD13B685B7914
:10103000002B04D0FB7D43F02003FB7503E0FB7D18
:1010400043F01003FB75FB7D43F00403FB75FB7D50
:1010500043F08003FB753B681B787A6814339B0070
:1010600013445B687A691A60FB7F18462037BD46D7
:1010700080BD00BF80B489B000AF786039600023C4
:10108000FB770023BB6100233B610023BB603B680F
:101090005B78012B6FD17B689B697B617B691B68E7
:1010A0003B617B691B69BB603B685B69002B09D1B5
:1010B0003B7A6FF306033B72BB7A012262F3C403EF
:1010C000BB7223E03B685A693B689B689A420ED921
:1010D0003B689A683B685A613B689B68DBB203F0E7
:1010E0007F03DAB23B7A62F306033B7209E03B68A6
:1010F0005B69DBB203F07F03DAB23B7A62F306038B
:101100003B72BB7A012262F3C403BB72BA687B698B
:101110001A617B68DB78012B09D13B681B787A6800
:1011200004339B0013449B683A6812695A61FB7C44
:1011300043F00403FB74FB7C43F08003FB743A69C7
:101140007B691A607B68DB78002B75D13B685B6933
:10115000002B71D03B681B78012202FA03F3BA69B5
:101160001343BB617B681B697A681269516BBA696A
:101170000A435A6360E03B681B787A6814339B002B
:1011800013445B681B683B613B681B787A681433C7
:101190009B0013445B681B69BB603B685B69002B69
:1011A0000FD13B689B68DBB203F07F03DAB23B7A76
:1011B00062F306033B72BB7A012262F3C403BB7283
:1011C00012E03B689A683B685A613B689B68DBB2F7
:1011D00003F07F03DAB23B7A62F306033B72BB7A19
:1011E000012262F3C403BB723B681B787A68143334
:1011F0009B0013445B68BA681A617B68DB78012B3B
:1012000009D13B681B787A6814339B0013445B68F0
:101210003A6812695A61FB7C43F00403FB74FB7C5F
:1012200043F08003FB743B681B787A6814339B009F
:1012300013445B683A691A60FB7F18462437BD4641
:101240005DF8047B704700BF80B487B000AF786062
:1012500039600023FB750023FB603B685B78012B42
:101260001CD13B681B787A6804339B0013449B684D
:101270003B613B691B68FB60FB7BC3F3C013DBB2C4
:10128000002B03D0FB7B43F04003FB73BB7B43F09D
:101290002003BB73FA683B691A6011E03B681B7856
:1012A0007A6814339B0013445B683B613B691B689D
:1012B000FB60BB7B43F02003BB73FA683B691A6099
:1012C000FB7D18461C37BD465DF8047B704700BFA8
:1012D00080B487B000AF786039600023FB740023CE
:1012E000FB603B685B78012B08D13B681B787A6810
:1012F00004339B0013449B687B6107E03B681B78C9
:101300007A6814339B0013445B687B617B691B68BC
:10131000FB60BB7B6FF34513BB733B68DB78032B30
:1013200003D03B68DB78022B03D1FB7B43F0100337
:10133000FB73FA687B691A60FB7C18461C37BD4654
:101340005DF8047B704700BF80B485B000AF786063
:101350007B681B699B69FB607B681B69DB69FA68BA
:101360001340FB60FB681B0C18461437BD465DF844
:10137000047B704780B485B000AF78600B46FB708B
:10138000FB787A6814339B0013445B689B68FB60AE
:101390007B681B695B69FA681340FB60FB68184651
:1013A0001437BD465DF8047B704700BF80B485B03C
:1013B00000AF78607B681B699B69FB607B681B6979
:1013C000DB69FA681340FB60FB689BB21846143770
:1013D000BD465DF8047B704780B487B000AF78608D
:1013E00000233B61FB7C43F0C003FB74BB7C012208
:1013F00062F3C403BB743B7C182262F306033B74A4
:101400007B685B6D3A691A617B68DB78012B16D1CA
:101410000023FB607B685B6D7A6802F5B9625A61F4
:101420007B685B6D1B68FB60FB7B43F08003FB7399
:101430004FF08023FB607B685B6DFA681A601C3795
:10144000BD465DF8047B704780B485B000AF78601E
:101450007B689B7A002B1BD07B681B699B68FB60B9
:101460003B7BC3F30003DBB2012B11D17B6803F597
:1014700086731B68BB603B7A6FF341033B723B7A18
:101480006FF300033B727B68D3F80C31BA681A60C3
:101490001437BD465DF8047B704700BF80B400AFD1
:1014A000BD465DF8047B704780B483B000AF03464F
:1014B000FB71FB79002B02D0012B02D002E000BFB0
:1014C00000E000BF0C37BD465DF8047B704700BFED
:1014D00080B400AFBD465DF8047B704780B400AFB8
:1014E000BD465DF8047B704780B400AFBD465DF833
:1014F000047B704780B400AFBD465DF8047B704745
:1015000080B400AFBD465DF8047B704780B582B003
:1015100000AF104B7B60104B3B6007E03B681A1D2F
:101520003A607A68111D796012681A603A680B4B4C
:101530009A42F3D30A480B494FF000028842B8BFE1
:1015400040F8042BFFF6FAAF00F05CFA0837BD460E
:1015500080BD00BF4444000800000020300100208E
:1015600030010020AC10002080B400AFFEE700BFC7
:1015700080B584B000AFF8607A603B600B46FB72C8
:10158000F86800F033FFF86800F01CF8FB683A6870
:10159000C3F8E025FB68BA69C3F8E425FB687A68FC
:1015A000C3F8E825FB7AF868194602F053FCFB689B
:1015B000D3F8E4351B689847F86800F06FFF1037E0
:1015C000BD4680BD80B483B000AF7860002318466C
:1015D0000C37BD465DF8047B704700BF80B584B012
:1015E00000AF786007F108037868194601F078FBCE
:1015F0003B7A03F01F03012B0AD0022B0FD0002BE4
:1016000014D107F108037868194600F093FF16E03B
:1016100007F108037868194600F0DCFF0FE007F1D6
:1016200008037868194601F009F808E03B7A23F0CE
:101630007F03DBB27868194602F08EFD00BF0023FD
:1016400018461037BD4680BD80B584B000AF7860C5
:101650000B46FB70FB78002B45D17B6803F55C7370
:10166000FB607B6893F81131032B4FD1FB68DA697B
:10167000FB689B689A4221D9FB68DA69FB689B6822
:10168000D21AFB68DA617B68DB78012B06D1FB6834
:10169000DA68FB689B681A44FB68DA60FB68DA6802
:1016A000FB689968FB68DB69994238BF0B469BB2BF
:1016B000786811461A4602F035FE27E07B68D3F8B9
:1016C000E0351B69002B0AD07B6893F81231032B9D
:1016D00005D17B68D3F8E0351B697868984778684E
:1016E00002F034FE12E07B68D3F8E0359B69002BF2
:1016F0000CD07B6893F81231032B07D17B68D3F8A9
:10170000E0359B69FA7878681146984700231846B7
:101710001037BD4680BD00BF80B584B000AF786093
:101720000B46FB70FB78002B60D17B6803F58C7354
:10173000FB607B6893F81131022B6AD1FB68DA6990
:10174000FB689B689A421CD9FB68DA69FB689B6856
:10175000D21AFB68DA617B68DB78012B06D1FB6863
:10176000DA68FB689B681A44FB68DA60FB68DA6831
:10177000FB68DB699BB2786811461A4602F09EFD51
:1017800047E0FB681B6AFA689268B3FBF2F102FB60
:1017900001F29B1A002B14D1FB681A6AFB689B6844
:1017A0009A420ED3FB681A6AFB685B6A9A4208D2B7
:1017B00078680021002202F081FDFB6800225A6255
:1017C00027E07B68D3F8E035DB68002B0AD07B6824
:1017D00093F81231032B05D17B68D3F8E035DB6831
:1017E00078689847786802F0C9FD12E07B68D3F802
:1017F000E0355B69002B0CD07B6893F81231032B2A
:1018000007D17B68D3F8E0355B69FA7878681146D0
:101810009847002318461037BD4680BD80B582B07A
:1018200000AF7860786800214022002302F092FB2C
:10183000786880214022002302F08CFB7B68012223
:1018400083F812217B68D3F8E4355B687A68927874
:1018500010469847002318460837BD4680BD00BF94
:1018600080B582B000AF78607B68D3F8E4351B693F
:1018700098477B68032283F8122100231846083713
:10188000BD4680BD80B582B000AF78607B68042221
:1018900083F812217B68D3F8E435DB68984700238E
:1018A00018460837BD4680BD80B582B000AF78606D
:1018B0007B68D3F8E035DB69002B05D07B68D3F873
:1018C000E035DB6978689847002318460837BD463D
:1018D00080BD00BF80B582B000AF78600B46FB7062
:1018E0007B68D3F8E0351B68FA787868114698472A
:1018F0007B68D3F8E4359B6898470023184608377F
:10190000BD4680BD80B582B000AF78600B46FB70ED
:101910007B68D3F8E0355B68FA78786811469847B9
:10192000002318460837BD4680BD00BF80B582B091
:1019300000AF78607B68D3F8E0351B6A7868984719
:10194000002318460837BD4680BD00BF80B582B071
:1019500000AF78607B68D3F8E0355B6A78689847B9
:10196000002318460837BD4680BD00BF80B483B051
:1019700000AF03463960FB7197F90730002B0BDA93
:101980000D49FB7903F00F03043B3A68D2B2120110
:10199000D2B20B441A7609E0084997F907303A6841
:1019A000D2B21201D2B20B4483F800230C37BD46E9
:1019B0005DF8047B704700BF00ED00E000E100E04F
:1019C00080B582B000AF78607B68B3F1807F01D3CF
:1019D000012311E00A4B7A6822F07F42013A5A60F3
:1019E0004FF0FF300F21FFF7C1FF054B00229A6037
:1019F000034B07221A60002318460837BD4680BDF6
:101A000010E000E080B582B000AF00F049FC00F0CB
:101A10003DF81B4B1B68B3F5FA7F04D1194B4FF40B
:101A200000525A830BE0164B1B68B3F57A7F06D140
:101A3000134B00221A60134B4FF400521A83FB1D04
:101A4000184600F001FC0346002B0ED00D4B4FF45E
:101A500080521A83FB79184600F080FB094B4FF443
:101A600080521A83084B0A221A60074B1B68002B0E
:101A700004D1044B4FF480525A83CAE7C9E700BF30
:101A80005C010020000C02406001002080B584B0A1
:101A900002AF0820012100F0C9F84FF470433B6009
:101AA00001233B710023BB7101237B710023FB7178
:101AB0003B460F48194600F0E5F90E4B1A680E4BED
:101AC000A3FB02139B091846FFF77AFF0346002B7E
:101AD00001D000F01BF8094B009309480121094A85
:101AE000094BFFF745FD00BF0837BD4680BD00BF6D
:101AF000000C0240A8000020D34D6210000000201E
:101B0000640100204C0000200401002080B483B058
:101B100000AF0123FB8000233B6000BF3B685A1CE1
:101B20003A600B4A9342F9D90A4BFA88120392B2EF
:101B30005A83FB885B00FB80FB880F2B01D90123B4
:101B4000FB80044BFA88120392B21A83E3E700BFCA
:101B50001FA10700000C024080B400AF084B1B68B7
:101B60005A1C074B1A60074B1B68002B04D0054B0F
:101B70001B685A1E034B1A60BD465DF8047B704714
:101B80005C0100206001002080B400AFBD465DF81C
:101B9000047B704780B500AFFFF7B8FF80BD00BF82
:101BA00080B500AFFFF7B2FF80BD00BF80B500AFCA
:101BB000FFF7ACFF80BD00BF80B500AFFFF7A6FF09
:101BC00080BD00BF80B400AFBD465DF8047B7047A8
:101BD00080B400AFBD465DF8047B704780B400AFB1
:101BE000BD465DF8047B704780B500AF014801F049
:101BF00037F980BD6401002080B500AF094B9B7AA6
:101C0000002B0AD0084B084A126822F006021A601C
:101C100000F046FB0348FFF717FC4FF4802002F06A
:101C20009BF880BD6401002010ED00E080B483B01B
:101C300000AF78600B46FB70FB78002B06D0094B99
:101C4000084A116B7A680A431A6306E0054B054A95
:101C5000116B7A68D2430A401A630C37BD465DF8AF
:101C6000047B70470038024080B483B000AF7860D6
:101C70000B46FB70FB78002B06D0094B084A516BD2
:101C80007A680A435A6306E0054B054A516B7A6845
:101C9000D2430A405A630C37BD465DF8047B704757
:101CA0000038024080B483B000AF78600B46FB7010
:101CB000FB78002B06D0094B084A516C7A680A431E
:101CC0005A6406E0054B054A516C7A68D2430A40D3
:101CD0005A640C37BD465DF8047B704700380240FB
:101CE00080B483B000AF78600B46FB70FB78002BAC
:101CF00006D0094B084A116A7A680A431A6206E05C
:101D0000054B054A116A7A68D2430A401A620C37B9
:101D1000BD465DF8047B70470038024080B483B054
:101D200000AF03463960FB713B6812221A80034BF7
:101D300018460C37BD465DF8047B704768000020EC
:101D400080B483B000AF03463960FB713B68042266
:101D50001A80034B18460C37BD465DF8047B70476C
:101D60008800002080B582B000AF03463960FB7167
:101D7000FB79002B05D1084808493A6801F01AF8A8
:101D800004E0074805493A6801F014F8034B184687
:101D90000837BD4680BD00BFAC430008EC070020FB
:101DA000D043000880B582B000AF03463960FB71B4
:101DB000044805493A6800F0FDFF034B1846083710
:101DC000BD4680BDF4430008EC07002080B582B01A
:101DD00000AF03463960FB71FB79002B05D1084841
:101DE00008493A6800F0E6FF04E0074805493A6808
:101DF00000F0E0FF034B18460837BD4680BD00BF2A
:101E000008440008EC0700201844000880B582B0A0
:101E100000AF03463960FB71FB79002B05D1084800
:101E200008493A6800F0C6FF04E0054805493A68E9
:101E300000F0C0FF034B18460837BD4680BD00BF09
:101E400028440008EC07002080B582B000AF0346AC
:101E50003960FB71FB79002B05D1084808493A68C5
:101E600000F0A8FF04E0054805493A6800F0A2FF29
:101E7000034B18460837BD4680BD00BF34440008F8
:101E8000EC07002080B487B000AF78603960002391
:101E90007B6100233B610023FB6000237B6176E0D4
:101EA0007B69012202FA03F33B613B681A683B69D4
:101EB0001340FB60FA683B699A4265D17B681A68F7
:101EC0007B695B00032101FA03F3DB431A407B6863
:101ED0001A607B681A683B681B7919467B695B004E
:101EE00001FA03F31A437B681A603B681B79012BE4
:101EF00003D03B681B79022B2ED17B689A687B69E3
:101F00005B00032101FA03F3DB431A407B689A600C
:101F10007B689A683B685B7919467B695B0001FACC
:101F200003F31A437B689A607B685A687B699BB2AB
:101F3000012101FA03F3DB431A407B685A607B6896
:101F40005A683B689B7919467B699BB201FA03F397
:101F50009BB21A437B685A607B68DA687B699BB2E4
:101F60005B00032101FA03F3DB431A407B68DA606C
:101F70007B68DA683B68DB7919467B695B0001FAAC
:101F800003F31A437B68DA607B6901337B617B6909
:101F90000F2B85D91C37BD465DF8047B704700BF09
:101FA00080B485B000AF786013460A467A807B70B3
:101FB0000023FB600023BB607A787B8803F0070373
:101FC0009B0002FA03F3FB607B88DB089BB21A4696
:101FD0007B88DB089BB219467B68083153F82110D7
:101FE0007B8803F007039B000F2000FA03F3DB4319
:101FF00019407B68083243F822107B88DB089BB2CB
:102000001A467B68083253F82220FB681343BB60F2
:102010007B88DB089BB21A467B680832B96843F8B4
:1020200022101437BD465DF8047B704780B400AFC2
:1020300000231846BD465DF8047B704780B400AFAE
:1020400000231846BD465DF8047B704780B485B018
:1020500000AFF860B9607A60FB68232B74D801A2E6
:1020600052F823F0492100084921000849210008BD
:102070004921000849210008492100084921000898
:102080004921000849210008492100084921000888
:102090004921000849210008492100084921000878
:1020A0004921000849210008492100084921000868
:1020B0004921000849210008492100084921000858
:1020C0004921000849210008492100084921000848
:1020D0004921000849210008492100084921000838
:1020E0004921000849210008F5200008492100087D
:1020F00049210008184B1B68DAB2BB681A70BB682C
:102100000133154A1268120AD2B21A70BB68023340
:10211000114A1268120CD2B21A70BB6803330E4A0D
:102120001268120ED2B21A70BB6804330A4A1279CE
:102130001A70BB680533084A52791A70BB680633B7
:10214000054A92791A7000E000BF00231846143740
:10215000BD465DF8047B70478C00002080B582B0DE
:1021600000AF0346FB71FB1D1846012100F004F887
:102170000837BD4680BD00BF80B485B000AF786031
:1021800039600023FB6017E0114B1B687968FA681F
:102190000A4411780F4AD1540D4B1B685A1C0C4B42
:1021A0001A60FB680133FB60094B1B68B3F5006FD5
:1021B00002D1074B00221A60FA683B689A42E3D3C7
:1021C000002318461437BD465DF8047B704700BFF6
:1021D00044010020AC08002080B485B000AF7860D6
:1021E00039600023FB601EE0144B1B687968FA68B5
:1021F0000A441178124AD154104B1B685A1C0F4BD9
:102200001A600E4B1B68802B02D10C4B00221A6007
:102210000A4B1A680B4B1B689A4201D1022307E054
:10222000FB680133FB60FA683B689A42DCD3002309
:1022300018461437BD465DF8047B7047E807002058
:1022400054070020D407002080B483B000AF78602A
:10225000104B1A68104B1B689A4201D1002312E000
:102260000D4B1B680D4AD25C7B681A700A4B1B68C9
:102270005A1C094B1A60084B1B68802B02D1064B75
:1022800000221A60012318460C37BD465DF8047B16
:10229000704700BFE8070020D40700205407002043
:1022A00080B500AF114B114A126842F001021A606A
:1022B0000E4B00229A600D4A0C4B1B6823F084736E
:1022C00023F480331360094B094A5A60074B074ACD
:1022D000126822F480221A60044B0022DA6000F0B7
:1022E0000BF8044B4FF000629A6080BD003802404A
:1022F0001030002400ED00E080B483B000AF002374
:102300007B6000233B60354B344A126842F48032D4
:102310001A60324B1B6803F400333B607B68013367
:102320007B603B68002B03D17B68B3F5A06FF0D1D5
:102330002A4B1B6803F40033002B02D001233B60BF
:1023400001E000233B603B68012B42D1234B234A31
:10235000126C42F080521A64214B214A126842F4F6
:1023600080421A601D4B1D4A92689A601B4B1B4AA3
:10237000926842F400429A60184B184A926842F4FC
:10238000A0529A60154B174A5A60144B134A1268B0
:1023900042F080721A6000BF104B1B6803F000739C
:1023A000002BF9D0104B40F205621A600B4B0B4A20
:1023B000926822F003029A60084B084A926842F041
:1023C00002029A6000BF054B9B6803F00C03082BC8
:1023D000F9D10C37BD465DF8047B704700380240E8
:1023E0000070004019544007003C024080B584B0A2
:1023F00000AF786001200121FFF718FC4FF4D8539B
:10240000BB6003237B7302233B730023BB73002356
:10241000FB7307F1080320481946FFF733FD1E48F8
:1024200008210A22FFF7BCFD1B4809210A22FFF7F9
:10243000B7FD19480B210A22FFF7B2FD16480C21FF
:102440000A22FFF7ADFD4FF48063BB600123BB732D
:102450000123FB7303237B7307F108030E4819461E
:10246000FFF710FD0C480A210A22FFF799FD4FF4EF
:1024700080400121FFF716FC80200121FFF7F4FBCB
:102480004FF080500121FFF72BFC012001F064FC8C
:102490001037BD4680BD00BF0000024080B584B04B
:1024A00000AF78604FF4C06001F064FC43233B73DD
:1024B00001237B730323BB730123FB7307F10C031D
:1024C000184601F069FC1037BD4680BD80B485B068
:1024D00000AF78600023FB607A6813461B019B1AEB
:1024E000DB001A460A4BA3FB0213D21A520813440C
:1024F0009B08BB60FB680133FB60FA68BB689A42CB
:1025000000D900E0F6E71437BD465DF8047B70475C
:102510002549922480B582B000AF78607B684FF483
:102520007A7202FB03F31846FFF7D0FF0837BD4667
:1025300080BD00BF80B584B000AF786039600023F3
:10254000FB733B685B78092B39D801A252F823F062
:10255000A1250008B5250008BF250008AB25000807
:10256000BF2500088325000879250008BF2500083D
:10257000972500088D2500087868396800F036F93D
:1025800022E07868396800F00DFA1DE07868396853
:1025900000F046FA18E07868396800F0BBFA13E0FA
:1025A0007868396800F0E6FA0EE07868396800F07B
:1025B00009FB09E07868396800F06AFB04E0786894
:1025C000396800F0D3FB00BFFB7B18461037BD46CF
:1025D00080BD00BF80B584B000AF78603960002353
:1025E000FB737B6893F81231032B1CD13B689B88EB
:1025F000DBB2012B11D87B68D3F8E0359B68786893
:10260000396898473B68DB88002B0BD1FB7B002B9C
:1026100008D1786801F09AFE0AE07868396800F01D
:10262000A5FB05E004E07868396800F09FFB00BF77
:10263000FB7B18461037BD4680BD00BF80B584B017
:1026400000AF786039600023FB733B689B88BB73E5
:102650003B685B78012B39D0032B02D0002B6BD069
:10266000BCE07B6893F81231022B02D0032B0DD013
:1026700026E0BB7B002B08D0BB7B802B05D0BB7B2F
:102680007868194601F068FD1FE01EE03B685B8832
:10269000002B0AD1BB7B002B07D0BB7B802B04D047
:1026A000BB7B7868194601F057FD7B68D3F8E035AD
:1026B0009B68786839689847786801F047FE04E0BD
:1026C0007868396800F052FB00BF87E07B6893F8B8
:1026D0001231022B02D0032B0DD027E0BB7B002B45
:1026E00008D0BB7B802B05D0BB7B7868194601F0F6
:1026F00033FD20E01FE03B685B88002B15D1BB7BDE
:10270000002B0ED0BB7B802B0BD0BB7B786819468F
:1027100001F05CFD7B68D3F8E0359B687868396828
:102720009847786801F012FE05E004E0786839689F
:1027300000F01CFB00BF51E07B6893F81231022BC4
:1027400002D0032B0DD043E0BB7B002B08D0BB7B1A
:10275000802B05D0BB7B7868194601F0FDFC3CE07E
:102760003BE0BB7B5BB2002B15DABB7B03F07F0247
:10277000796813469B001344DB000B4403F58C730C
:102780009B78002B03D0184B01221A601AE0164BDD
:1027900000221A6016E0BB7B5BB2002B12DBBA7B17
:1027A000796813469B001344DB000B4403F55C730C
:1027B0009B78002B03D00C4B01221A6002E00A4BDD
:1027C00000221A6078680849022201F057FD04E0EF
:1027D0007868396800F0CAFA00BF00BFFB7B184672
:1027E0001037BD4680BD00BF3001002080B584B0E9
:1027F00000AF786039603B685B881B0A9BB2013B85
:10280000062B00F2B18001A252F823F0292800081B
:102810005B28000885280008692900086929000844
:10282000552900085F2900087B68D3F8E8351B6844
:102830007A68917807F10A02084611469847F860CD
:102840003B68DB88402B04D07B6893F81231012B66
:1028500002D108237B818CE08BE07B68D3F8E035E4
:102860009B6A7A68917807F10A02084611469847F0
:10287000F860FB68013302221A707B68FA68C3F8BB
:10288000EC2576E03B685B88DBB2052B5CD801A2C7
:1028900052F823F0AD280008C7280008E1280008F6
:1028A000FB280008152900082F2900087B68D3F8A9
:1028B000E8355B687A68917807F10A0208461146A4
:1028C0009847F86045E07B68D3F8E8359B687A68FC
:1028D000917807F10A02084611469847F86038E0F7
:1028E0007B68D3F8E835DB687A68917807F10A02EB
:1028F000084611469847F8602BE07B68D3F8E83526
:102900001B697A68917807F10A02084611469847D0
:10291000F8601EE07B68D3F8E8355B697A689178E7
:1029200007F10A02084611469847F86011E07B68F3
:10293000D3F8E8359B697A68917807F10A0208466E
:1029400011469847F86004E07868396800F00EFA9C
:1029500024E00EE07868396800F008FA1EE0786834
:10296000396800F003FA19E07868396800F0FEF978
:1029700014E07B89002B11D03B68DB88002B0DD045
:102980003B68DA887B899A4238BF13469BB27B81C9
:102990007B897868F9681A4601F070FC1037BD46EB
:1029A00080BD00BF80B584B000AF786039603B68FF
:1029B0009B88002B2DD13B68DB88002B29D13B68FD
:1029C0005B88DBB203F07F03FB737B6893F8123103
:1029D000032B04D17868396800F0C8F918E07B68E7
:1029E000FA7B83F81321FB7B7868194601F028FCF9
:1029F000786801F0ABFCFB7B002B04D07B680222E3
:102A000083F8122104E07B68012283F8122104E09C
:102A100003E07868396800F0A9F91037BD4680BD39
:102A200080B582B000AF786039603B685B88DAB20D
:102A3000374B1A70364B1B78012B04D978683968EC
:102A400000F094F960E07B6893F81231022B02D019
:102A5000032B1BD053E02E4B1B78002B12D02C4B9A
:102A60001A787B6883F810217B68032283F812218F
:102A7000274B1B7878681946FEF72CFF786801F021
:102A800065FC41E0786801F061FC3DE0204B1B787B
:102A9000002B12D17B68022283F812211C4B1A787A
:102AA0007B6883F810211A4B1B7878681946FEF76B
:102AB00029FF786801F04AFC20E07B6893F8102138
:102AC000134B1B789A4215D07B6893F810317868C5
:102AD0001946FEF717FF0E4B1A787B6883F8102112
:102AE0000B4B1B7878681946FEF7F4FE786801F006
:102AF0002DFC03E0786801F029FC05E004E078682B
:102B0000396800F033F900BF0837BD4680BD00BF0B
:102B10003C01002080B582B000AF786039603B682E
:102B2000DB88012B04D07868396800F01FF91BE0BE
:102B30007B6893F81231022B02D0032B06D00EE0F3
:102B400078680B49012201F099FB0DE07B6803F5E1
:102B5000887378681946012201F090FB04E07868D8
:102B6000396800F003F900BF0837BD4680BD00BFDB
:102B70003401002080B582B000AF786039607B6896
:102B800093F81231023B012B11D87B68D3F8143132
:102B9000002B03D00A4B03221A6002E0084B0122EB
:102BA0001A6078680649012201F068FB04E0786841
:102BB000396800F0DBF800BF0837BD4680BD00BFB4
:102BC0003801002080B584B000AF78603960002300
:102BD000FB733B685B88012B0ED17B680122C3F835
:102BE00014217B68D3F8E0359B687868396898478A
:102BF000786801F0ABFB48E03B685B88022B44D16E
:102C00003B689B88DBB2002B3FD17B681B695B680C
:102C1000BB603B689B881B0A9BB2FB73FB7B013B41
:102C2000042B2BD801A252F823F000BF412C00083E
:102C30004D2C0008592C0008652C0008712C000848
:102C40003B7A012262F306133B7217E03B7A0222C1
:102C500062F306133B7211E03B7A032262F3061320
:102C60003B720BE03B7A042262F306133B7205E0F1
:102C70003B7A052262F306133B7200BF7B681B6937
:102C8000BA685A60786801F061FB1037BD4680BDB4
:102C900080B582B000AF786039607B6893F81231FC
:102CA000023B012B13D83B685B88012B0ED17B685C
:102CB0000022C3F814217B68D3F8E0359B6878685C
:102CC00039689847786801F041FB05E004E07868CE
:102CD000396800F04BF800BF0837BD4680BD00BF23
:102CE00080B483B000AF786039607B6893F8C82502
:102CF0003B681A707B6893F8C9253B685A707B68FB
:102D000093F8CA351A467B6893F8CB351B029BB201
:102D100013449AB23B685A807B6893F8CC351A46C4
:102D20007B6893F8CD351B029BB213449AB23B6883
:102D30009A807B6893F8CE351A467B6893F8CF3536
:102D40001B029BB213449AB23B68DA803B68DB8873
:102D50001A467B68C3F83C217B68012283F8112165
:102D60000C37BD465DF8047B704700BF80B582B06C
:102D700000AF786039603B681B78DBB25BB2002B38
:102D800004DA7868802101F0E7F90CE03B68DB8821
:102D9000002B04D17868802101F0DEF903E0786827
:102DA000002101F0D9F97868FEF716FB0837BD4617
:102DB00080BD00BF80B586B000AFF860B9607A60B2
:102DC0000023FB75FB68002B2FD0F86800F030F86B
:102DD000034601339BB25B009AB27B681A80FB7D8D
:102DE0005A1CFA75BA6813447A681288D2B21A70FB
:102DF000FB7D5A1CFA75BA68134403221A7010E05E
:102E0000FB7D5A1CFA75BA681A44FB68591CF960B4
:102E10001B781370FB7D5A1CFA75BA6813440022A4
:102E20001A70FB681B78002BEAD11837BD4680BDAD
:102E300080B485B000AF78600023FB7305E0FB7BB6
:102E40000133FB737B6801337B607B681B78002B4D
:102E5000F5D1FB7B18461437BD465DF8047B7047FF
:102E600080B586B000AF786000237B617868FDF79D
:102E7000DDFC0346002B00F09C807868FDF7E8FC41
:102E800003463B613B69002B01D1002392E0BB7CF0
:102E9000C3F3C003DBB2002B06D0786800F012FA4F
:102EA00003467A6913437B61BB7CC3F38003DBB2C7
:102EB000002B06D0786800F00FF903467A691343B7
:102EC0007B613B7CC3F34003DBB2002B09D00023C2
:102ED000FB603B7B43F002033B737B68DB68FA6873
:102EE0005A61FB7CC3F3C013DBB2002B06D07868B9
:102EF00000F064F803467A6913437B617B7CC3F37B
:102F0000C003DBB2002B06D0786800F097F80346C8
:102F10007A6913437B613B7CC3F3C003DBB2002BB4
:102F200006D0786800F08AFA03467A6913437B6119
:102F30003B7CC3F30013DBB2002B06D0786800F0B3
:102F400097FA03467A6913437B617B7CC3F30013D2
:102F5000DBB2002B06D0786800F07EFB03467A696E
:102F600013437B617B7CC3F34013DBB2002B06D0A1
:102F7000786800F013FC03467A6913437B61BB7CDD
:102F8000C3F30013DBB2002B06D0786800F042FCDC
:102F900003467A6913437B61BB7CC3F34013DBB206
:102FA000002B06D0786800F04FFC03467A69134383
:102FB0007B617B6918461837BD4680BD80B586B0F9
:102FC00000AF78607B689B7A002B11D07B6803F59B
:102FD00086731B68FB603B7B6FF341033B733B7B5A
:102FE0006FF300033B737B68D3F80C31FA681A6007
:102FF00000233B613B7C43F001033B747B681B690E
:103000007A68126951683A69D2430A405A600A4B99
:103010001B689B697868984700237B61FB7D43F0C0
:103020008003FB757B68DB687A695A610123184667
:103030001837BD4680BD00BF4800002080B586B06F
:1030400000AF7860224B1B685B69786898477B68A3
:103050001B699B68FB6000237B617B7D43F0080359
:103060007B757B68DB687A695A617B689B7A002B89
:1030700029D03B7BC3F30003DBB2012B23D1002318
:103080003B613B7C43F001033B747B68D3F80C311C
:103090007A68D2F80C2111683A690A431A603B7CBD
:1030A00043F002033B747B68D3F80C317A68D2F8A2
:1030B0000C2111683A690A431A60064B054A1269E5
:1030C00042F006021A61012318461837BD4680BD3A
:1030D0004800002000ED00E080B586B000AF7860C9
:1030E00000233B610023BB607868FEF75FF97861DD
:1030F000DCE07B6903F00103002B00F0D1803B6929
:10310000DBB27868194600F0B9FB0346BB603B7A36
:10311000C3F30003DBB2002B32D03B69012202FA79
:1031200003F3FB607B681B697A681269516BFA686C
:10313000D2430A405A630023BB603B7A43F0010349
:103140003B727A683B6904339B0013449B68BA68FE
:103150009A605B4B1B685B683A69D2B2786811462B
:1031600098477B68DB78012B0AD13B69002B07D19C
:103170007B6893F81131042B02D17868FEF72CF9A3
:103180003B7AC3F38003DBB2002B0DD00023BB607E
:103190003B7A43F004033B727A683B6904339B003B
:1031A00013449B68BA689A603B7AC3F3C003DBB2EE
:1031B000002B0DD00023BB603B7A43F008033B7229
:1031C0007A683B6904339B0013449B68BA689A6031
:1031D0003B7AC3F30013DBB2002B0DD00023BB609E
:1031E0003B7A43F010033B727A683B6904339B00DF
:1031F00013449B68BA689A603B7AC3F34013DBB20E
:10320000002B0DD00023BB603B7A43F020033B72C0
:103210007A683B6904339B0013449B68BA689A60E0
:103220003B7AC3F38013DBB2002B0DD00023BB60CD
:103230003B7A43F040033B727A683B6904339B005E
:1032400013449B68BA689A603B7AC3F34003DBB2CD
:10325000002B0DD00023BB603B7A43F002033B728E
:103260007A683B6904339B0013449B68BA689A6090
:103270003B7AC3F3C013DBB2002B11D078683969F5
:1032800000F078F90023BB603B7A43F080033B7287
:103290007A683B6904339B0013449B68BA689A6060
:1032A0003B6901333B617B695B087B617B69002B78
:1032B0007FF41FAF012318461837BD4680BD00BFFD
:1032C0004800002080B586B000AF786000233B61E5
:1032D0000023FB607868FEF737F87861A3E07B692C
:1032E00003F00103002B00F098803B69DBB27868A3
:1032F0001946FEF73FF80346FB603B7BC3F3000330
:10330000DBB2002B48D00023FB603B7B43F0010382
:103310003B737A683B6914339B0013445B68FA681B
:103320009A607B68DB78012B1FD17A683B69143384
:103330009B0013445B681B69BB6079683A6913465C
:103340009B001344DB000B4403F55E731A68BB68F3
:10335000C3F31203D11A78683A6913469B001344E9
:10336000DB00034403F562731960334B1B681B6871
:103370003A69D2B27868114698477B68DB78012BAE
:103380000AD13B69002B07D17B6893F81131052BDB
:1033900002D17868FEF720F83B7BC3F34003DBB231
:1033A000002B0DD00023FB603B7B43F002033B73FB
:1033B0007A683B6914339B0013445B68FA689A602F
:1033C0003B7BC3F38003DBB2002B0DD00023FB60FB
:1033D0003B7B43F004033B737A683B6914339B00E7
:1033E00013445B68FA689A603B7BC3F3C003DBB2AB
:1033F000002B12D0104B1B689B68786898470023FD
:10340000FB603B7B43F008033B737A683B691433F2
:103410009B0013445B68FA689A603B6901333B6127
:103420007B695B087B617B69002B7FF458AF0123CC
:1034300018461837BD4680BD4800002080B584B0CE
:1034400000AF7860094B1B68DB68786898470023F9
:10345000FB603B7B43F008033B737B68DB68FA68E7
:103460005A61012318461037BD4680BD4800002030
:1034700080B586B000AF786000233B613B7C43F0B1
:1034800010033B747B68DB687A68D26891693A699B
:10349000D2430A409A617B68DB681B6AFB603B7B16
:1034A000C3F30303DBB21A4613469B001344DB004D
:1034B00003F55C737A6813447B61BB7BC3F34303FE
:1034C000DBB2013B052B46D801A252F823F000BF26
:1034D00057350008E934000857350008573500080B
:1034E0005735000833350008BB89C3F30A139BB274
:1034F000002B1DD07B69DA68BB89C3F30A139BB22A
:10350000786811461A46FCF7DFFE7B69DA68BB89EA
:10351000C3F30A139BB21A447B69DA607B699A6928
:10352000BB89C3F30A139BB21A447B699A6113E007
:1035300012E07B6803F5B963786819460822FCF746
:10354000C3FE7B699A69BB89C3F30A139BB21A4411
:103550007B699A6100E000BF7B68DB687A68D268AB
:1035600091693A690A439A61012318461837BD46A2
:1035700080BD00BF80B586B000AF786039600023A1
:103580007B610023BB603A6813469B001344DB0059
:1035900003F58C737A681344FB60FB685A69FB6817
:1035A0009B69D31A7B61FB689A687B699A4202D255
:1035B000FB689B687B617B6903339B083B617A688E
:1035C0003B6804339B0013449B689B69BB602EE0FF
:1035D000FB685A69FB689B69D31A7B61FB689A6830
:1035E0007B699A4202D2FB689B687B617B690333EB
:1035F0009B083B61FB68D9683B68DAB27B699BB288
:103600007868FCF729FEFB68DA687B691A44FB6876
:10361000DA60FB689A697B691A44FB689A617A6888
:103620003B6804339B0013449B689B69BB603B89E8
:103630001A463B699A4209D9FB689A69FB685B693B
:103640009A4203D2FB685B69002BC1D10123184663
:103650001837BD4680BD00BF80B58AB000AF786026
:1036600000233B6100233B620023FB610023BB611D
:1036700000237B610023FB603B7C43F001033B7430
:103680007B681B697A68126951683A69D2430A40BB
:103690005A6078680021FDF723F800237B6212E06E
:1036A0007A687B6A04339B0013449B68FF229A600C
:1036B0007A687B6A14339B0013445B68FF229A602C
:1036C0007B6A01337B627B685B781A467B6A9A422D
:1036D000E6D87B681B694FF0FF329A613B8C012270
:1036E00062F30F033B847B8C012262F30F037B8424
:1036F0007B681B693A6ADA613B7F43F008033B77DA
:103700003B7F43F001033B773B7F43F004033B7770
:103710003B7F43F002033B777B681B69FA695A6180
:103720003B7E43F001033B763B7E43F008033B7650
:103730003B7E43F002033B763B7E43F004033B7643
:103740003B7E43F020033B767B681B69BA691A61B4
:103750007B681B691B687B61BB8A6FF30A13BB82A2
:103760007B681B697A691A607868FDF735FE00236B
:10377000FB607B7B43F010037B737B68DB68FA683C
:103780005A61054B1B681B697868984701231846E6
:103790002837BD4680BD00BF4800002080B584B0FA
:1037A00000AF78607868FDF735FA7B68DB68DB6826
:1037B000BB607868FDF70AFA0346032B0CD17B68DF
:1037C00000229A707B684FF400729A807B7A0922FB
:1037D00062F385037B720AE07B6801229A707B6842
:1037E00040229A807B7A052262F385037B727B6894
:1037F000DB68BA68DA600023FB607B7B43F0200360
:103800007B737B68DB68FA685A61012318461037BE
:10381000BD4680BD80B584B000AF78600023FB60FA
:10382000084B1B68DB6978689847BB7B43F0100343
:10383000BB737B68DB68FA685A610123184610374E
:10384000BD4680BD4800002080B584B000AF7860E0
:103850000023FB60084B1B681B6A78689847BB7B9A
:1038600043F02003BB737B68DB68FA685A6101236D
:1038700018461037BD4680BD4800002080B487B090
:1038800000AF78600B46FB707B681B691B697B612E
:103890007B681B695B6B3B61FB783A6922FA03F337
:1038A000DB01DBB27A6913437B61FB787A6804330E
:1038B0009B0013449B689A687B691340FB60FB681C
:1038C00018461C37BD465DF8047B704780B584B050
:1038D00000AF78600B46FB707B68D3F8EC3539336A
:1038E0001B88786881211A46022300F033FB7B682D
:1038F000D3F8EC3540331B88786801211A4602233F
:1039000000F028FB786882210822032300F022FBC4
:103910000D4BFB60FB68043302221A70FB68053311
:1039200000221A70094B1B6898477B68D3F8EC3566
:1039300040331B8878680121054A00F091FB002381
:1039400018461037BD4680BD680000209400002056
:103950006408002080B582B000AF78600B46FB7031
:103960007868812100F044FB7868012100F040FB79
:103970007868822100F03CFB034B5B68984700238A
:1039800018460837BD4680BD9400002080B584B03D
:1039900000AF786039603B681B7803F06003002B50
:1039A0003FD0202B37D13B68DB88002B29D03B68E8
:1039B0001B78DBB25BB2002B11DA364B9B683A689E
:1039C000527811463A68D2880846334998473B688E
:1039D000DB88786830491A4600F050FC19E03B68F3
:1039E0005B781A462D4B1A603B68DB881A462C4BD5
:1039F0001A603B68DB88786827491A4600F072FC39
:103A000007E0244B9B683A68527810460021002258
:103A1000984700233AE078683968FFF7A7F902234E
:103A200034E03B685B780A2B18D00B2B1CD0062B9C
:103A30002BD13B685B881B0A9BB2212B07D1194B0A
:103A4000BB603B68DB883A2B28BF3A23FB81FB89AC
:103A50007868B9681A4600F011FC16E078681249D7
:103A6000012200F00BFC10E03B685B88DBB2002B0E
:103A700006D13B685B88DBB21A460B4B1A6003E049
:103A800078683968FFF772F900BF002318461037CD
:103A9000BD4680BD94000020A40800200001002045
:103AA00054010020CE0000204001002080B582B0EB
:103AB00000AF78600A4B1B68FF2B0BD0094B9B684B
:103AC000074A1168084A1268084608499847044B93
:103AD000FF221A60002318460837BD4680BD00BF8C
:103AE000000100209400002054010020A4080020C0
:103AF00080B584B000AF78600B46FB70284B1B7814
:103B0000012B48D1274B1B68002B03D1244B0022EB
:103B10001A7040E07B68D3F8EC3539331B881A46BD
:103B2000204B1B689A421ED21F4B1B68FB817B688F
:103B3000D3F8EC35B3F83930BB817B68D3F8EC357A
:103B400039331B881A46184B1B681A44164B1A60E7
:103B5000144B1A687B68D3F8EC3539331B88D21ABA
:103B6000104B1A600FE0104B1B68FB810D4B1B685C
:103B7000BB810D4B1A680B4B1B681A440A4B1A6029
:103B8000084B00221A60FA89084B1A44BB897868EE
:103B9000812100F0A5FA002318461037BD4680BDEC
:103BA000500100204C01002048010020AC080020FA
:103BB00080B584B000AF78600B46FB70FA78796806
:103BC00013469B001344DB000B4403F562731B6830
:103BD000FB810A4B1B69FA890948114698477B68A3
:103BE000D3F8EC3540331B8878680121044A00F093
:103BF00037FA002318461037BD4680BD94000020D8
:103C00006408002080B582B000AF7860084B1B6864
:103C1000591C074A1160052B05D1054B00221A607B
:103C2000786800F007F8002318460837BD4680BDC5
:103C30005801002080B584B000AF7860384B1B7805
:103C4000012B69D0374B1B68B3F5006F02D1354BA0
:103C500000221A60334B1A68334B1B689A4203D117
:103C60002F4B00221A7057E02E4B1A682E4B1B6800
:103C70009A4206D92B4B1B68C3F500622B4B1A6086
:103C800006E0294B1A68274B1B68D21A274B1A608B
:103C90007B68D3F8EC3539331B881A46234B1B68F5
:103CA0009A421ED21F4B1B68FB817B68D3F8EC3510
:103CB000B3F83930BB817B68D3F8EC3539331B88D6
:103CC0001A46184B1B681A44164B1A60174B1A6891
:103CD0007B68D3F8EC3539331B88D21A134B1A6042
:103CE0000FE0104B1B68FB81104B1B68BB810D4B19
:103CF0001A680E4B1B681A440A4B1A600B4B0022C1
:103D00001A60074B01221A70FA89094B1A44BB89C1
:103D10007868812100F0E4F91037BD4680BD00BF0E
:103D20005001002048010020440100204C010020E7
:103D3000AC08002080B483B000AF03463960FB714B
:103D40003B6843221A80034B18460C37BD465DF88A
:103D5000047B7047BC00002080B483B000AF786063
:103D6000034B7A685A610C37BD465DF8047B704797
:103D7000003C014080B483B000AF7860054A7B68A6
:103D800043F0BF6343F40033D3600C37BD465DF8A6
:103D9000047B704700ED00E080B485B000AF786030
:103DA0000023FB730023BB730F237B737B68DB78DB
:103DB000002B37D0254BDB68DB4303F4E0631B0AA1
:103DC000FB73FB7BC3F10403BB737A7BFB7B42FA7F
:103DD00003F37B737B685B781A46BB7B02FA03F3C1
:103DE000FB737B689A787B7B1340DAB2FB7B1343CF
:103DF000FB73FB7B1B01FB73154A7B681B78134429
:103E0000FA7B83F80023124B7A6812785209D2B2F7
:103E10007968097801F01F01012000FA01F143F8E7
:103E200022100EE00A4B7A6812785209D2B27968F1
:103E3000097801F01F01012000FA01F1203243F856
:103E400022101437BD465DF8047B704700ED00E09A
:103E500000E100E080B584B000AF78600B46FB70F5
:103E6000FB7878681946FCF75BFA7B68012283F8D7
:103E700012217B68002283F813210023FB6023E0DA
:103E8000FA6813469B001344DB0003F58C737A68D1
:103E90001344BB60BB6801225A70FB68DAB2BB688E
:103EA0001A70FB689AB2BB68DA80BB680022DA70CD
:103EB000BB6840229A60BB680022DA60BB680022BF
:103EC0005A61FB680133FB607B685B781A46FB68CC
:103ED0009A42D5D80023FB6023E0FA6813469B0082
:103EE0001344DB0003F55C737A681344BB60BB6862
:103EF00000225A70FB68DAB2BB681A70FB689AB28B
:103F0000BB68DA80BB680022DA70BB6840229A6026
:103F1000BB680022DA60BB6800225A61FB6801338B
:103F2000FB607B685B781A46FB689A42D5D8786854
:103F3000FCF7BAFB7868FCF7ADFA78680021FCF76B
:103F400035FC7868FCF7B8FC7868FCF791FB103713
:103F5000BD4680BD80B584B000AF7860F9703A800E
:103F6000BB70FB785BB2002B0CDAFB7803F07F02AE
:103F700013469B001344DB0003F58C737A681344EB
:103F8000FB600BE0FB7803F07F0213469B001344B9
:103F9000DB0003F55C737A681344FB60FB7803F085
:103FA0007F03DAB2FB681A70FB78DB09DBB21A46D2
:103FB000FB685A703A88FB689A60FB68BA78DA70D6
:103FC000FB685B78002B04D0FB681B781A46FB6803
:103FD000DA80BB78022B02D1FB6800221A71786864
:103FE000F968FCF753FE002318461037BD4680BD24
:103FF00080B584B000AF78600B46FB70FB785BB295
:10400000002B0CDAFB7803F07F0213469B0013446D
:10401000DB0003F58C737A681344FB600BE0FB78DC
:1040200003F07F0213469B001344DB0003F55C732F
:104030007A681344FB60FB7803F07F03DAB2FB6815
:104040001A70FB78DB09DBB21A46FB685A70786895
:10405000F968FCF789FE002318461037BD4680BD7D
:1040600080B586B000AFF8607A600A46FA723B818C
:10407000FB7A03F07F0213469B001344DB0003F539
:104080005C73FA6813447B617B697A68DA603A8909
:104090007B695A617B6900229A617B6900225A70B0
:1040A000FB7A03F07F03DAB27B691A70FB68DB7876
:1040B000012B02D17A687B691A617B691B78002B1E
:1040C00004D1F8687969FCF7D5FF03E0F8687969ED
:1040D000FCF790FE002318461837BD4680BD00BF90
:1040E00080B586B000AFF8607A603B600B46FB722B
:1040F000FB7A03F07F0213469B001344DB0003F5B9
:104100008C73FA6813447B617B6901225A70FB7AD5
:1041100003F07F03DAB27B691A707B697A68DA6030
:104120007A687B691A617B6900229A617B693A68C7
:104130005A617B691B78002B04D1F8687969FCF718
:1041400099FF03E0F8687969FCF754FE00231846EC
:104150001837BD4680BD00BF80B584B000AF786021
:104160000B46FB70FB785BB2002B0CDAFB7803F09C
:104170007F0213469B001344DB0003F58C737A68BF
:104180001344FB6009E0FA7813469B001344DB00FC
:1041900003F55C737A681344FB60FB6801229A7034
:1041A000FB7803F07F03DAB2FB681A70FB78DB0957
:1041B000DBB21A46FB685A707868F968FDF744F874
:1041C000002318461037BD4680BD00BF80B584B0BF
:1041D00000AF78600B46FB70FB785BB2002B0CDA0B
:1041E000FB7803F07F0213469B001344DB0003F5CA
:1041F0008C737A681344FB6009E0FA7813469B00DD
:104200001344DB0003F55C737A681344FB60FB68BE
:1042100000229A70FB7803F07F03DAB2FB681A7011
:10422000FB78DB09DBB21A46FB685A707868F968DC
:10423000FDF74EF8002318461037BD4680BD00BF7D
:1042400080B485B000AF78600B46FB700023FB6044
:10425000FB7803F07F03DAB2BB8962F30A13BB81F8
:104260007B681B697A6812691168FA680A431A60E8
:104270001437BD465DF8047B704700BF80B586B03B
:1042800000AFF860B9601346FB800023FB75FA8825
:10429000FB68C3F83821FA88FB68C3F83421FB684F
:1042A000022283F81121FB88F8680021BA68FFF721
:1042B00017FFFB7D18461837BD4680BD80B586B018
:1042C00000AFF860B9601346FB800023FB75FB88E4
:1042D000F8680021BA68FFF703FFFB7D184618371E
:1042E000BD4680BD80B586B000AFF860B9601346AA
:1042F000FB800023FB75FA88FB68C3F89023FA88DB
:10430000FB68C3F88C23FB68032283F81121FB8828
:10431000F8680021BA68FFF7A3FEFB7D184618373E
:10432000BD4680BD80B586B000AFF860B960134669
:10433000FB800023FB75FB88F8680021BA68FFF753
:104340008FFEFB7D18461837BD4680BD80B584B012
:1043500000AF78600023FB737B68042283F811218F
:104360007868002100220023FFF7BAFE7868FDF785
:1043700033F8FB7B18461037BD4680BD80B584B04E
:1043800000AF78600023FB737B68052283F811215E
:104390007868002100220023FFF762FE7868FDF7AD
:1043A0001BF8FB7B18461037BD4680BD53544D3378
:1043B00032205669727475616C20436F6D506F7254
:1043C0007420696E204853206D6F64650000000002
:1043D00053544D3332205669727475616C20436FAB
:1043E0006D506F727420696E204653204D6F646566
:1043F0000000000053544D6963726F656C6563740F
:10440000726F6E696373000030303030303030309E
:104410003035304200000000303030303030303045
:10442000303530430000000056435020436F6E6625
:104430006967000056435020496E74657266616377
:044440006500000013
:104444009D140008A9140008D1140008F5140008EC
:1044540001150008DD140008E914000849160008D5
:1044640019170008DD150008A91800081D18000810
:1044740085180008611800082D1900084D19000856
:1044840000000000000000001C0000201D1D0008AA
:10449400411D0008A51D0008651D0008CD1D00086C
:1044A4000D1E0008491E0008120100020000004011
:1044B4008304405700020102030100000A060002BF
:1044C40000000040010000000403090400C20100D0
:1044D400000008002D2000083D2000084D200008A1
:1044E40079210008D9210008007A030A000000009D
:1044F4000000000001020304060708090902430042
:10450400020100C032090400000102020100052476
:104514000010010524010001042402020524060000
:1045240001070582030800FF09040100020A0000D4
:104534000007050102400000070581024000000059
:10454400FF000000CD380008553900088D390008F7
:1045540000000000AD3A0008F13A0008B13B000841
:10456400053C00080000000000000000353D000884
:0400000508000000EF
:00000001FF
