:020000040800F2
:100000005008002075070008D1070008D107000834
:10001000D1070008D1070008D10700080000000040
:10002000000000000000000000000000D1070008F0
:10003000D107000800000000D1070008D107000820
:10004000D1070008D1070008D1070008D107000830
:10005000D1070008D1070008D1070008D107000820
:10006000D1070008D1070008D1070008D107000810
:10007000D1070008D1070008D1070008D107000800
:10008000D1070008D1070008D1070008D1070008F0
:10009000D1070008D1070008D1070008D1070008E0
:1000A000D1070008D1070008D1070008D1070008D0
:1000B000D1070008D1070008D1070008D1070008C0
:1000C000D1070008D1070008D1070008D1070008B0
:1000D000D1070008D1070008D1070008D1070008A0
:1000E000D1070008D1070008D1070008D107000890
:1000F000D1070008D1070008D1070008D107000880
:10010000D1070008D1070008D1070008D10700086F
:10011000D1070008D1070008D1070008D10700085F
:10012000D1070008D1070008D1070008D10700084F
:10013000D1070008D1070008D1070008D10700083F
:10014000D1070008D1070008D1070008D10700082F
:10015000D1070008D1070008D1070008D10700081F
:10016000D1070008D1070008D1070008D10700080F
:10017000D1070008D1070008D1070008D1070008FF
:10018000D1070008D107000880B483B000AF7860C1
:100190000B46FB707B681B889BB203F04003002B6F
:1001A00001D1002325E000BF7B681B899BB203F0CF
:1001B0000303002BF8D07B681B899BB203F08003FC
:1001C000002BF1D1FB789AB27B689A8100BF7B68E3
:1001D0001B899BB203F00303002BF8D07B681B89BB
:1001E0009BB203F08003002BF1D17B689B899BB20B
:1001F000DBB218460C37BD465DF8047B704700BF84
:1002000080B582B002AF01230093002301930D4813
:1002100080210122002300F05DFE012300930023D2
:10022000019308484FF480710122002300F052FE30
:10023000044B80221A83034B4FF480725A83BD46CD
:1002400080BD00BF000C024080B582B000AF024606
:100250000B46FA71BB71FFF7D3FF4048012100F054
:1002600027FBBB79202B01D92023BB71FB79002B05
:1002700014BF00230123DBB21A46394B5A70384BA6
:10028000BA791A70364B03229A70354B0022DA7015
:1002900000F084F9FB79184600F012FA304B1B7815
:1002A0001120194600F0AAF82D4B1B781220194690
:1002B00000F0A4F82A4B1B781320194600F09EF892
:1002C000274B1B781420194600F098F8244B1B7814
:1002D0001520194600F092F8214B1B78162019467C
:1002E00000F08CF81E4BDA781D4B9B7810461946AF
:1002F00000F000FA0020082100F080F801203F21E2
:1003000000F07CF802203F2100F078F804204F2113
:1003100000F074F81C20002100F070F8114B8022CE
:100320005A830E48E121FFF72FFF0E4B80221A83DC
:100330000C4B80225A830948E221FFF725FF094B25
:1003400080221A830720702100F058F800F0A0F8EE
:10035000012318460837BD4680BD00BF003C004061
:1003600010000020000C024080B582B000AF786021
:10037000074B4FF480725A830B207968052200F0F6
:1003800061F8034B4FF480721A830837BD4680BD75
:10039000000C024080B582B000AF78600A20796816
:1003A000052200F04FF810207968052200F04AF885
:1003B0000837BD4680BD00BF80B584B000AF03469E
:1003C000FB710C4B80225A83FB7903F01F03DBB2D5
:1003D00009481946FFF7D8FE0748FF21FFF7D4FE6A
:1003E0000346FB73034B80221A83FB7B18461037AE
:1003F000BD4680BD000C0240003C004080B582B08C
:1004000000AF02460B46FA71BB710C4B80225A8337
:10041000FB7903F01F03DBB243F02003DBB2084893
:100420001946FFF7B1FEBB7905481946FFF7ACFE48
:10043000024B80221A830837BD4680BD000C024063
:10044000003C004080B582B000AF396013460246E0
:10045000FA71BB710C4B80225A83FB7903F01F03A6
:10046000DBB243F02003DBB208481946FFF78CFEED
:10047000BB79064839681A4600F0A6FA024B80227A
:100480001A830837BD4680BD000C0240003C004086
:1004900080B500AF0D4B4FF480725A830B4B802216
:1004A0005A830B48E221FFF76FFE084B80221A8324
:1004B00007207021FFF7A2FF00200B21FFF79EFF0E
:1004C000024B4FF480721A8380BD00BF000C0240C3
:1004D000003C004080B582B000AF78600B4B8022BA
:1004E0005A830B486121FFF74FFE0A4B1B780848DF
:1004F00079687A6800F01CFA044B80221A8307207E
:100500004021FFF77BFF0837BD4680BD000C02404D
:10051000003C00401000002080B582B000AF00F029
:1005200025F80346FB71FB7903F04003002B01D053
:10053000012307E000F00AF80346002B14BF002354
:100540000123DBB218460837BD4680BD80B582B0B6
:1005500000AF1720FFF730FF0346FB71FB7903F074
:100560000103DBB218460837BD4680BD80B582B0B6
:1005700000AF084B80225A830748FF21FFF704FE93
:100580000346FB71034B80221A83FB791846083718
:10059000BD4680BD000C0240003C004080B582B0EA
:1005A00000AF00200821FFF729FF01203F21FFF7BE
:1005B00025FF02200321FFF721FF03200321FFF77E
:1005C0001DFF04200321FFF719FF05200221FFF77B
:1005D00015FF06200E21FFF711FF07200E21FFF760
:1005E0000DFF08200021FFF709FF09200021FFF778
:1005F00005FFE7233B70E7237B70E723BB70E7230E
:10060000FB70E7233B713B460A2019460522FFF7A2
:1006100019FFC2233B70C2237B70C223BB70C2236D
:10062000FB70C2233B713B460B2019460522FFF7A6
:1006300009FF0C20C321FFF7E1FE0D20C421FFF7C5
:10064000DDFE0E20C521FFF7D9FE0F20C621FFF7E2
:10065000D5FEE7233B70E7237B70E723BB70E723DE
:10066000FB70E7233B713B46102019460522FFF73C
:10067000E9FE11200021FFF7C1FE12200021FFF743
:10068000BDFE13200021FFF7B9FE14200021FFF763
:10069000B5FE15200021FFF7B1FE16200021FFF75F
:1006A000ADFE17201121FFF7A9FE1C200021FFF746
:1006B000A5FE1D200021FFF7A1FE0837BD4680BD25
:1006C00080B582B000AF0346FB71FB797D2B0CD85F
:1006D000074B5B78FA799A4207D0054BFA795A7042
:1006E000FB7905201946FFF789FE0837BD4680BD16
:1006F0001000002080B584B000AF02460B46FA71AE
:10070000BB710023FB731A4BFA79DA70184BBA7974
:100710009A70FB79002B04D1FB7B43F00803FB7339
:1007200006E0FB79022B03D1FB7B43F02003FB7334
:10073000BB79032B04D1FB7B43F00603FB730EE074
:10074000BB79022B04D1FB7B43F00403FB7306E06F
:10075000BB79012B03D1FB7B43F00203FB73FB7BD3
:1007600006201946FFF74AFE1037BD4680BD00BF80
:100770001000002080B582B000AF104B7B60104BA2
:100780003B6007E03B681A1D3A607A68111D79608A
:1007900012681A603A680B4B9A42F3D30A480B4925
:1007A0004FF000028842B8BF40F8042BFFF6FAAFC2
:1007B00000F044F80837BD4680BD00BFF0100008C7
:1007C0000000002010000020100000205000002039
:1007D00080B400AFFEE700BF80B582B000AF10204C
:1007E000012100F047F803233B6001233B71012303
:1007F0007B710023BB710023FB713B460348194604
:1008000000F064FA0837BD4680BD00BF001002400A
:1008100080B500AF14202021FFF716FD0220032130
:10082000FFF768FF0348FFF79FFD0348FFF7B2FD9E
:1008300080BD00BF080000200000002080B500AF90
:10084000FFF7CAFFFFF7E4FFFFF766FE0346002B42
:100850000BD00648FFF73EFE044B1B78FF2B04D15C
:100860000348022100F0C0FAEEE7EDE72C0000207B
:100870000010024080B483B000AF78600B46FB707C
:10088000FB78002B06D0094B084A116B7A680A43A3
:100890001A6306E0054B054A116B7A68D2430A4099
:1008A0001A630C37BD465DF8047B70470038024080
:1008B00080B584B002AF78600B46FB707A68194B44
:1008C0009A420BD1FB784FF482720092002201927F
:1008D000144819460022202300F0C6F87A68124B0B
:1008E0009A420BD1FB784FF482720092002201925F
:1008F0000D4819460022202300F0B6F87A680B4B09
:100900009A420BD1FB784FF482720092002201923E
:10091000064819460022202300F0A6F80837BD46F5
:1009200080BD00BF0030014000380040003C004066
:1009300080B487B000AFF860B9607A603B60FB6854
:100940001B889BB203F04003002B00D136E000BFB0
:10095000FB681B899BB203F00303002BF8D0FB68F4
:100960001B899BB203F08003002BF1D100237B6134
:1009700020E0BA687B6913441B781A46FB689A81A9
:1009800000BFFB681B899BB203F00303002BF8D068
:10099000FB681B899BB203F08003002BF1D17A68BE
:1009A0007B691344FA68928992B2D2B21A707B6959
:1009B00001337B617A693B689A42DAD31C37BD46C2
:1009C0005DF8047B704700BF80B487B000AFF8606B
:1009D000B9607A60FB681B889BB203F04003002B70
:1009E00000D130E000BFFB681B899BB203F003031A
:1009F000002BF8D0FB681B899BB203F08003002B0F
:100A0000F1D100237B611AE0BA687B6913441B783B
:100A10001A46FB689A8100BFFB681B899BB203F0F2
:100A20000303002BF8D0FB681B899BB203F0800303
:100A3000002BF1D1FB689B897B6901337B617A696B
:100A40007B689A42E0D31C37BD465DF8047B704753
:100A500080B483B000AF78600B467B800C37BD4616
:100A60005DF8047B704700BF80B588B000AF786048
:100A7000F970BA703B8007F10C03184600F006FAD3
:100A80007A68394B9A420BD1384B384A526C42F44F
:100A900080525A64FB78184600F06EF800233B82BF
:100AA0007A68334B9A420BD1304B304A126C42F485
:100AB00080421A64FB78184600F08EF800233B82CF
:100AC0007A682C4B9A420BD1284B284A126C42F47C
:100AD00000421A64FB78184600F0C8F800233B82F5
:100AE0003B883B830023BB81BB8D7B833B8DFB819C
:100AF0004FF40073FB82BB78002B04D100237B8270
:100B00000023BB8216E0BB78012B04D100237B823B
:100B10000123BB820EE0BB78022B04D102237B822F
:100B20000023BB8206E0BB78032B03D102237B8228
:100B30000123BB827B681B889BB223F040039AB2DF
:100B40007B681A8007F10C037868194600F05AF99F
:100B50007B681B889BB243F040039AB27B681A8083
:100B60002037BD4680BD00BF003001400038024044
:100B700000380040003C004080B584B002AF03461E
:100B8000FB71FB79002B09D103230093052301930B
:100B90000E48E0210022002300F0B8F9FB79012B78
:100BA00009D103230093052301930948382100222A
:100BB000002300F0ABF9FB79032B03D10548052195
:100BC000FFF746FF0837BD4680BD00BF000002406A
:100BD000000402400030014080B584B002AF0346FB
:100BE000FB71FB79002B14D10323009305230193A0
:100BF0001A484FF480610022002300F087F9032394
:100C000000930523019316480C210022002300F0D5
:100C10007DF9FB79012B0AD103230093052301936E
:100C20000E484FF460410022002300F06FF9FB7979
:100C3000022B09D1032300930523019309480D21B9
:100C40000022002300F062F9FB79032B03D1064850
:100C50000521FFF7FDFE0837BD4680BD00040240B8
:100C600000080240002002400038004080B584B0F7
:100C700002AF0346FB71FB79002B09D103230093DC
:100C8000062301930E4838210022002300F03EF98C
:100C9000FB79012B0AD10323009306230193094812
:100CA0004FF4E0510022002300F030F9FB79032BD0
:100CB00003D105480621FFF7CBFE0837BD4680BDAE
:100CC0000004024000080240003C004080B487B0AD
:100CD00000AF7860396000237B6100233B61002313
:100CE000FB6000237B6176E07B69012202FA03F35B
:100CF0003B613B681A683B691340FB60FA683B69DB
:100D00009A4265D17B681A687B695B00032101FA0E
:100D100003F3DB431A407B681A607B681A683B6800
:100D20001B7919467B695B0001FA03F31A437B6860
:100D30001A603B681B79012B03D03B681B79022B9F
:100D40002ED17B689A687B695B00032101FA03F36B
:100D5000DB431A407B689A607B689A683B685B79E2
:100D600019467B695B0001FA03F31A437B689A60BA
:100D70007B685A687B699BB2012101FA03F3DB436C
:100D80001A407B685A607B685A683B689B791946B1
:100D90007B699BB201FA03F39BB21A437B685A60EA
:100DA0007B68DA687B699BB25B00032101FA03F37D
:100DB000DB431A407B68DA607B68DA683B68DB7982
:100DC00019467B695B0001FA03F31A437B68DA601A
:100DD0007B6901337B617B690F2B85D91C37BD464D
:100DE0005DF8047B704700BF80B483B000AF7860CB
:100DF0000B467B807B687A881A830C37BD465DF88A
:100E0000047B704780B485B000AF78603960002300
:100E1000FB817B681B88FB81FB8903F44153FB81C9
:100E20003B681A883B685B8813439AB23B689B888F
:100E300013439AB23B68DB8813439AB23B681B8921
:100E400013439AB23B685B8913439AB23B689B8910
:100E500013439AB23B68DB8913439AB2FB8913436D
:100E6000FB817B68FA891A807B689B8B9BB223F499
:100E700000639AB27B689A833B681A8A7B681A82FD
:100E80001437BD465DF8047B704700BF80B483B063
:100E900000AF78607B6800221A807B6800225A804D
:100EA0007B6800229A807B680022DA807B680022BF
:100EB0001A817B6800225A817B6800229A817B68B4
:100EC0000022DA817B6807221A820C37BD465DF862
:100ED000047B704780B584B002AF786079807A7007
:100EE0003B707B88002B00D10CE0786800F06CF838
:100EF00079887A783B78387C0090387D01907868E2
:100F000000F078F80837BD4680BD00BF80B586B0D8
:100F100002AF786079807A703B707B88002B00D1BB
:100F20003CE0786800F050F80023FB6028E07A8805
:100F3000FB6842FA03F303F00103002B00D11CE02D
:100F4000FB68DA08FB68D9087B68083153F8211080
:100F5000FB6803F007039B000F2000FA03F3DB4359
:100F60001940387FFB6803F007039B0000FA03F386
:100F700019437B68083243F82210FB680133FB6099
:100F8000FB680F2BD3D97A887B7839780091397E2A
:100F9000019178681146022200F02CF81037BD4606
:100FA00080BD00BF80B483B000AF78607B6803F180
:100FB0003F4303F57E039B0A9BB218460C37BD46A0
:100FC0005DF8047B704700BFB0B582B000AF7860B9
:100FD000074C074B1D6B7868FFF7E4FF03460122BF
:100FE00002FA03F32B4323630837BD46B0BD00BFAD
:100FF0000038024080B584B000AF786079807A70A4
:101000003B707868FFF7CEFF0346BB730023FB738A
:1010100066E07A88FB7B42FA03F303F00103002BBE
:1010200000D15AE0BA7BB97B304B33F8113099B21A
:10103000FB7B012000FA03F39BB20B439BB299B2F6
:101040002A4B23F812107B68DA68FB7B5B000321D4
:1010500001FA03F3DB431A40397EFB7B5B0001FAA4
:1010600003F31A437B68DA607B681A68FB7B5B00DA
:10107000032101FA03F3DB431A407978FB7B5B0021
:1010800001FA03F31A437B681A607B78012B02D0C4
:101090007B78022B21D17B685A68FB7B012101FA06
:1010A00003F39BB2DB431A403978FB7B01FA03F36D
:1010B0009BB21A437B685A607B689A68FB7B5B0033
:1010C000032101FA03F3DB431A40397FFB7B5B000A
:1010D00001FA03F31A437B689A60FB7B0133FB73CD
:1010E000FB7B0F2B95D91037BD4680BD1400002027
:1010F000E7E7E7E7E70000007E7E7E7E7E000000F7
:0400000508000000EF
:00000001FF
